{"contracts/MyNFT .sol":{"MyNFT":{"abi":[{"anonymous":false,"inputs":[{"indexed":true,"internalType":"address","name":"owner","type":"address"},{"indexed":true,"internalType":"address","name":"spender","type":"address"},{"indexed":true,"internalType":"uint256","name":"id","type":"uint256"}],"name":"Approval","type":"event"},{"anonymous":false,"inputs":[{"indexed":true,"internalType":"address","name":"owner","type":"address"},{"indexed":true,"internalType":"address","name":"operator","type":"address"},{"indexed":false,"internalType":"bool","name":"approved","type":"bool"}],"name":"ApprovalForAll","type":"event"},{"anonymous":false,"inputs":[{"indexed":true,"internalType":"address","name":"from","type":"address"},{"indexed":true,"internalType":"address","name":"to","type":"address"},{"indexed":true,"internalType":"uint256","name":"id","type":"uint256"}],"name":"Transfer","type":"event"},{"inputs":[{"internalType":"address","name":"spender","type":"address"},{"internalType":"uint256","name":"id","type":"uint256"}],"name":"approve","outputs":[],"stateMutability":"nonpayable","type":"function"},{"inputs":[{"internalType":"address","name":"owner","type":"address"}],"name":"balanceOf","outputs":[{"internalType":"uint256","name":"","type":"uint256"}],"stateMutability":"view","type":"function"},{"inputs":[{"internalType":"uint256","name":"id","type":"uint256"}],"name":"burn","outputs":[],"stateMutability":"nonpayable","type":"function"},{"inputs":[{"internalType":"uint256","name":"id","type":"uint256"}],"name":"getApproved","outputs":[{"internalType":"address","name":"","type":"address"}],"stateMutability":"view","type":"function"},{"inputs":[{"internalType":"address","name":"","type":"address"},{"internalType":"address","name":"","type":"address"}],"name":"isApprovedForAll","outputs":[{"internalType":"bool","name":"","type":"bool"}],"stateMutability":"view","type":"function"},{"inputs":[{"internalType":"address","name":"to","type":"address"},{"internalType":"uint256","name":"id","type":"uint256"}],"name":"mint","outputs":[],"stateMutability":"nonpayable","type":"function"},{"inputs":[],"name":"name","outputs":[{"internalType":"string","name":"","type":"string"}],"stateMutability":"view","type":"function"},{"inputs":[{"internalType":"uint256","name":"id","type":"uint256"}],"name":"ownerOf","outputs":[{"internalType":"address","name":"owner","type":"address"}],"stateMutability":"view","type":"function"},{"inputs":[{"internalType":"address","name":"from","type":"address"},{"internalType":"address","name":"to","type":"address"},{"internalType":"uint256","name":"id","type":"uint256"}],"name":"safeTransferFrom","outputs":[],"stateMutability":"nonpayable","type":"function"},{"inputs":[{"internalType":"address","name":"from","type":"address"},{"internalType":"address","name":"to","type":"address"},{"internalType":"uint256","name":"id","type":"uint256"},{"internalType":"bytes","name":"data","type":"bytes"}],"name":"safeTransferFrom","outputs":[],"stateMutability":"nonpayable","type":"function"},{"inputs":[{"internalType":"address","name":"operator","type":"address"},{"internalType":"bool","name":"approved","type":"bool"}],"name":"setApprovalForAll","outputs":[],"stateMutability":"nonpayable","type":"function"},{"inputs":[{"internalType":"bytes4","name":"interfaceId","type":"bytes4"}],"name":"supportsInterface","outputs":[{"internalType":"bool","name":"","type":"bool"}],"stateMutability":"pure","type":"function"},{"inputs":[],"name":"symbol","outputs":[{"internalType":"string","name":"","type":"string"}],"stateMutability":"view","type":"function"},{"inputs":[{"internalType":"address","name":"from","type":"address"},{"internalType":"address","name":"to","type":"address"},{"internalType":"uint256","name":"id","type":"uint256"}],"name":"transferFrom","outputs":[],"stateMutability":"nonpayable","type":"function"}],"evm":{"bytecode":{"linkReferences":{},"object":"60806040523480156200001157600080fd5b506200002e676b22defbdfec65e860c01b620000fa60201b60201c565b6200004a67f1b0cce6de638a2060c01b620000fa60201b60201c565b6040518060400160405280600581526020017f41727069740000000000000000000000000000000000000000000000000000008152506000908162000090919062000377565b50620000ad673f85ea010a0aa0ab60c01b620000fa60201b60201c565b6040518060400160405280600381526020017f415250000000000000000000000000000000000000000000000000000000000081525060019081620000f3919062000377565b506200045e565b50565b600081519050919050565b7f4e487b7100000000000000000000000000000000000000000000000000000000600052604160045260246000fd5b7f4e487b7100000000000000000000000000000000000000000000000000000000600052602260045260246000fd5b600060028204905060018216806200017f57607f821691505b60208210810362000195576200019462000137565b5b50919050565b60008190508160005260206000209050919050565b60006020601f8301049050919050565b600082821b905092915050565b600060088302620001ff7fffffffffffffffffffffffffffffffffffffffffffffffffffffffffffffffff82620001c0565b6200020b8683620001c0565b95508019841693508086168417925050509392505050565b6000819050919050565b6000819050919050565b600062000258620002526200024c8462000223565b6200022d565b62000223565b9050919050565b6000819050919050565b620002748362000237565b6200028c62000283826200025f565b848454620001cd565b825550505050565b600090565b620002a362000294565b620002b081848462000269565b505050565b5b81811015620002d857620002cc60008262000299565b600181019050620002b6565b5050565b601f8211156200032757620002f1816200019b565b620002fc84620001b0565b810160208510156200030c578190505b620003246200031b85620001b0565b830182620002b5565b50505b505050565b600082821c905092915050565b60006200034c600019846008026200032c565b1980831691505092915050565b600062000367838362000339565b9150826002028217905092915050565b6200038282620000fd565b67ffffffffffffffff8111156200039e576200039d62000108565b5b620003aa825462000166565b620003b7828285620002dc565b600060209050601f831160018114620003ef5760008415620003da578287015190505b620003e6858262000359565b86555062000456565b601f198416620003ff866200019b565b60005b82811015620004295784890151825560018201915060208501945060208101905062000402565b8683101562000449578489015162000445601f89168262000339565b8355505b6001600288020188555050505b505050505050565b612afd806200046e6000396000f3fe608060405234801561001057600080fd5b50600436106100ea5760003560e01c806342966c681161008c57806395d89b411161006657806395d89b4114610259578063a22cb46514610277578063b88d4fde14610293578063e985e9c5146102af576100ea565b806342966c68146101dd5780636352211e146101f957806370a0823114610229576100ea565b8063095ea7b3116100c8578063095ea7b31461016d57806323b872dd1461018957806340c10f19146101a557806342842e0e146101c1576100ea565b806301ffc9a7146100ef57806306fdde031461011f578063081812fc1461013d575b600080fd5b61010960048036038101906101049190611f8b565b6102df565b6040516101169190611fd3565b60405180910390f35b610127610425565b604051610134919061207e565b60405180910390f35b610157600480360381019061015291906120d6565b6104b3565b6040516101649190612144565b60405180910390f35b6101876004803603810190610182919061218b565b61061e565b005b6101a3600480360381019061019e91906121cb565b610907565b005b6101bf60048036038101906101ba919061218b565b610d6f565b005b6101db60048036038101906101d691906121cb565b610db9565b005b6101f760048036038101906101f291906120d6565b610fb5565b005b610213600480360381019061020e91906120d6565b6110ee565b6040516102209190612144565b60405180910390f35b610243600480360381019061023e919061221e565b611212565b604051610250919061225a565b60405180910390f35b610261611356565b60405161026e919061207e565b60405180910390f35b610291600480360381019061028c91906122a1565b6113e4565b005b6102ad60048036038101906102a89190612346565b611531565b005b6102c960048036038101906102c491906123ce565b611733565b6040516102d69190611fd3565b60405180910390f35b60006102f5675334f6716b58bd2d60c01b611762565b61030967e5848963a1a39baa60c01b611762565b61031d6787fcb6458988e79d60c01b611762565b7f80ac58cd000000000000000000000000000000000000000000000000000000007bffffffffffffffffffffffffffffffffffffffffffffffffffffffff1916827bffffffffffffffffffffffffffffffffffffffffffffffffffffffff191614801561039a57506103996740b7720ac54b145560c01b611765565b5b8061041e57507f01ffc9a7000000000000000000000000000000000000000000000000000000007bffffffffffffffffffffffffffffffffffffffffffffffffffffffff1916827bffffffffffffffffffffffffffffffffffffffffffffffffffffffff191614801561041d575061041c679a7402c22105c0dd60c01b611765565b5b5b9050919050565b600080546104329061243d565b80601f016020809104026020016040519081016040528092919081815260200182805461045e9061243d565b80156104ab5780601f10610480576101008083540402835291602001916104ab565b820191906000526020600020905b81548152906001019060200180831161048e57829003601f168201915b505050505081565b60006104c9673ae3f034a692f3ba60c01b611762565b6104dd67e58c74283361ae2760c01b611762565b6104f167328199a8f9e6d12360c01b611762565b610505677ebbc0cee3249f7e60c01b611762565b600073ffffffffffffffffffffffffffffffffffffffff166002600084815260200190815260200160002060009054906101000a900473ffffffffffffffffffffffffffffffffffffffff1673ffffffffffffffffffffffffffffffffffffffff16036105a7576040517f08c379a000000000000000000000000000000000000000000000000000000000815260040161059e906124ba565b60405180910390fd5b6105bb6706accb9c64b99ac360c01b611762565b6105cf67856765af75fb216660c01b611762565b6105e3676a0dfbb2ded841a960c01b611762565b6004600083815260200190815260200160002060009054906101000a900473ffffffffffffffffffffffffffffffffffffffff169050919050565b61063267c06f352b72d2ee9360c01b611762565b610646675a4c5040793dea0360c01b611762565b61065a67843f30ee0383e6e860c01b611762565b60006002600083815260200190815260200160002060009054906101000a900473ffffffffffffffffffffffffffffffffffffffff1690506106a667515519f82b0b252360c01b611762565b6106ba677d0624be5fb7144060c01b611762565b6106ce670dfc88dbe952cd2860c01b611762565b8073ffffffffffffffffffffffffffffffffffffffff163373ffffffffffffffffffffffffffffffffffffffff16148015610719575061071867f08987176d9a0eb860c01b611765565b5b806107c65750600560008273ffffffffffffffffffffffffffffffffffffffff1673ffffffffffffffffffffffffffffffffffffffff16815260200190815260200160002060003373ffffffffffffffffffffffffffffffffffffffff1673ffffffffffffffffffffffffffffffffffffffff16815260200190815260200160002060009054906101000a900460ff1680156107c557506107c46782efe44665d8cda060c01b611765565b5b5b610805576040517f08c379a00000000000000000000000000000000000000000000000000000000081526004016107fc90612526565b60405180910390fd5b6108196798e0f5a1462cc6b360c01b611762565b61082d6795c5ad01c3e60a2860c01b611762565b826004600084815260200190815260200160002060006101000a81548173ffffffffffffffffffffffffffffffffffffffff021916908373ffffffffffffffffffffffffffffffffffffffff160217905550610893679dc42076de79e15060c01b611762565b6108a767540bde4360892d5d60c01b611762565b818373ffffffffffffffffffffffffffffffffffffffff168273ffffffffffffffffffffffffffffffffffffffff167f8c5be1e5ebec7d5bd14f71427d1e84f3dd0314c0f7b2291e5b200ac8c7c3b92560405160405180910390a4505050565b61091b67b38ac976fdb2460760c01b611762565b61092f673a0bf6aa66de360160c01b611762565b61094367e4b404c3317df6da60c01b611762565b6109576729b41a232d6c604760c01b611762565b6002600082815260200190815260200160002060009054906101000a900473ffffffffffffffffffffffffffffffffffffffff1673ffffffffffffffffffffffffffffffffffffffff168373ffffffffffffffffffffffffffffffffffffffff16146109f8576040517f08c379a00000000000000000000000000000000000000000000000000000000081526004016109ef90612592565b60405180910390fd5b610a0c67c063bc1f1390704060c01b611762565b610a20673537269872c65ad360c01b611762565b610a346720e08a04e2ef4d4960c01b611762565b610a486765b1fe06546e6b0960c01b611762565b600073ffffffffffffffffffffffffffffffffffffffff168273ffffffffffffffffffffffffffffffffffffffff1603610ab7576040517f08c379a0000000000000000000000000000000000000000000000000000000008152600401610aae906125fe565b60405180910390fd5b610acb67dca715eb7733ee4f60c01b611762565b610adf67243c44e5b5b33a8b60c01b611762565b610af3676fc51f7b374e0c0460c01b611762565b610b0767ac9827ed147ab0eb60c01b611762565b610b12833383611770565b610b51576040517f08c379a0000000000000000000000000000000000000000000000000000000008152600401610b4890612526565b60405180910390fd5b610b6567662feaa40d53141f60c01b611762565b610b79670889034c297a378d60c01b611762565b600360008473ffffffffffffffffffffffffffffffffffffffff1673ffffffffffffffffffffffffffffffffffffffff1681526020019081526020016000206000815480929190610bc99061264d565b9190505550610be267ca1ba016df639a3760c01b611762565b600360008373ffffffffffffffffffffffffffffffffffffffff1673ffffffffffffffffffffffffffffffffffffffff1681526020019081526020016000206000815480929190610c3290612676565b9190505550610c4b674163059f97562efb60c01b611762565b816002600083815260200190815260200160002060006101000a81548173ffffffffffffffffffffffffffffffffffffffff021916908373ffffffffffffffffffffffffffffffffffffffff160217905550610cb1678b65fbdba55bba9660c01b611762565b6004600082815260200190815260200160002060006101000a81549073ffffffffffffffffffffffffffffffffffffffff0219169055610cfb67962aee8c91f43b9960c01b611762565b610d0f675214b52e46c95a9460c01b611762565b808273ffffffffffffffffffffffffffffffffffffffff168473ffffffffffffffffffffffffffffffffffffffff167fddf252ad1be2c89b69c2b068fc378daa952ba7f163c4a11628f55a4df523b3ef60405160405180910390a4505050565b610d836751276cc240858c7160c01b611950565b610d97676b3273583906c37560c01b611950565b610dab670d4e1effb8ca864460c01b611950565b610db58282611953565b5050565b610dcd67c5c7cf1f4dfa605760c01b611762565b610de1670cd80b9af50938b560c01b611762565b610df567dc00ebd92fdc039f60c01b611762565b610e00838383610907565b610e146772456d349014798960c01b611762565b610e28670399fbeebb26ef9f60c01b611762565b610e3c675e1029f9f102e28e60c01b611762565b60008273ffffffffffffffffffffffffffffffffffffffff163b148015610e735750610e7267b8af6c205270eb0760c01b611765565b5b80610f5d575063150b7a0260e01b7bffffffffffffffffffffffffffffffffffffffffffffffffffffffff19168273ffffffffffffffffffffffffffffffffffffffff1663150b7a023386856040518463ffffffff1660e01b8152600401610edd939291906126f5565b6020604051808303816000875af1158015610efc573d6000803e3d6000fd5b505050506040513d601f19601f82011682018060405250810190610f209190612754565b7bffffffffffffffffffffffffffffffffffffffffffffffffffffffff1916148015610f5c5750610f5b6781d3130f6427b2bf60c01b611765565b5b5b610f9c576040517f08c379a0000000000000000000000000000000000000000000000000000000008152600401610f93906127cd565b60405180910390fd5b610fb067f1c4120a914f9f1360c01b611762565b505050565b610fc9675898e24c57f8df9460c01b611950565b610fdd67ea7e67418196589b60c01b611950565b610ff1674a1f675cab0d82c760c01b611950565b61100567f0361193ce1c622160c01b611950565b6002600082815260200190815260200160002060009054906101000a900473ffffffffffffffffffffffffffffffffffffffff1673ffffffffffffffffffffffffffffffffffffffff163373ffffffffffffffffffffffffffffffffffffffff16146110a6576040517f08c379a000000000000000000000000000000000000000000000000000000000815260040161109d90612839565b60405180910390fd5b6110ba67db5d7d9415dfff0860c01b611950565b6110ce67b95008f8530faee560c01b611950565b6110e267b68995e42c42de5d60c01b611950565b6110eb81611c6f565b50565b600061110467eb39d9ec09f8194060c01b611762565b61111867ab6f6051a5bac84660c01b611762565b6002600083815260200190815260200160002060009054906101000a900473ffffffffffffffffffffffffffffffffffffffff169050611162674977a6edb5249e6b60c01b611762565b61117667e8c942ca6e5019f160c01b611762565b61118a67d8fc023850153e0c60c01b611762565b600073ffffffffffffffffffffffffffffffffffffffff168173ffffffffffffffffffffffffffffffffffffffff16036111f9576040517f08c379a00000000000000000000000000000000000000000000000000000000081526004016111f0906124ba565b60405180910390fd5b61120d67a5d57ca1516610a260c01b611762565b919050565b60006112286727707d9bddf648b060c01b611762565b61123c674d0435900d6459da60c01b611762565b61125067096443d1d9a0158660c01b611762565b611264673a25b660378888c760c01b611762565b600073ffffffffffffffffffffffffffffffffffffffff168273ffffffffffffffffffffffffffffffffffffffff16036112d3576040517f08c379a00000000000000000000000000000000000000000000000000000000081526004016112ca906128a5565b60405180910390fd5b6112e767993ecea53787024260c01b611762565b6112fb67e5b61c45e1fbe94c60c01b611762565b61130f6745eb6ff2414389e860c01b611762565b600360008373ffffffffffffffffffffffffffffffffffffffff1673ffffffffffffffffffffffffffffffffffffffff168152602001908152602001600020549050919050565b600180546113639061243d565b80601f016020809104026020016040519081016040528092919081815260200182805461138f9061243d565b80156113dc5780601f106113b1576101008083540402835291602001916113dc565b820191906000526020600020905b8154815290600101906020018083116113bf57829003601f168201915b505050505081565b6113f867ae5095c1e1921bf960c01b611762565b61140c67ea04ea2c2dd8253260c01b611762565b80600560003373ffffffffffffffffffffffffffffffffffffffff1673ffffffffffffffffffffffffffffffffffffffff16815260200190815260200160002060008473ffffffffffffffffffffffffffffffffffffffff1673ffffffffffffffffffffffffffffffffffffffff16815260200190815260200160002060006101000a81548160ff0219169083151502179055506114b46799d9b1821955dd6360c01b611762565b6114c8672ea4eeb1bc7c284060c01b611762565b8173ffffffffffffffffffffffffffffffffffffffff163373ffffffffffffffffffffffffffffffffffffffff167f17307eab39ab6107e8899845ad3d59bd9653f200f220920489ca2b5937696c31836040516115259190611fd3565b60405180910390a35050565b61154567c4f972f3e1deb82c60c01b611762565b611559671c3d01c57e27b90160c01b611762565b61156d670d045c665a3e434660c01b611762565b611578858585610907565b61158c678714f7d28d4d8c6c60c01b611762565b6115a067cc1f2dbbbd6736ee60c01b611762565b6115b467b98b10832de9960060c01b611762565b60008473ffffffffffffffffffffffffffffffffffffffff163b1480156115eb57506115ea677fc3141c789b692d60c01b611765565b5b806116d9575063150b7a0260e01b7bffffffffffffffffffffffffffffffffffffffffffffffffffffffff19168473ffffffffffffffffffffffffffffffffffffffff1663150b7a0233888787876040518663ffffffff1660e01b8152600401611659959493929190612901565b6020604051808303816000875af1158015611678573d6000803e3d6000fd5b505050506040513d601f19601f8201168201806040525081019061169c9190612754565b7bffffffffffffffffffffffffffffffffffffffffffffffffffffffff19161480156116d857506116d767e11cb0e4bd0bf69c60c01b611765565b5b5b611718576040517f08c379a000000000000000000000000000000000000000000000000000000000815260040161170f906127cd565b60405180910390fd5b61172c674fa7636c8a43156560c01b611762565b5050505050565b60056020528160005260406000206020528060005260406000206000915091509054906101000a900460ff1681565b50565b600060019050919050565b60006117866780d2ca321d69414160c01b611762565b61179a675c5b278fb42f3eaf60c01b611762565b6117ae6783533c78cd80ed1960c01b611762565b8373ffffffffffffffffffffffffffffffffffffffff168373ffffffffffffffffffffffffffffffffffffffff161480156117f957506117f86748a3417b76841dd760c01b611765565b5b806118c25750600560008573ffffffffffffffffffffffffffffffffffffffff1673ffffffffffffffffffffffffffffffffffffffff16815260200190815260200160002060008473ffffffffffffffffffffffffffffffffffffffff1673ffffffffffffffffffffffffffffffffffffffff16815260200190815260200160002060009054906101000a900460ff1680156118a557506118a467537fbad961c44f6460c01b611765565b5b80156118c157506118c06710d8463b4ee794fb60c01b611765565b5b5b8061194757506004600083815260200190815260200160002060009054906101000a900473ffffffffffffffffffffffffffffffffffffffff1673ffffffffffffffffffffffffffffffffffffffff168373ffffffffffffffffffffffffffffffffffffffff16148015611946575061194567b01890a79146783b60c01b611765565b5b5b90509392505050565b50565b61196767bb9aa87a6d332cab60c01b611762565b61197b67f0d8db1220c172cb60c01b611762565b61198f6712f714cebca2aec960c01b611762565b6119a367617886d65612af0460c01b611762565b600073ffffffffffffffffffffffffffffffffffffffff168273ffffffffffffffffffffffffffffffffffffffff1603611a12576040517f08c379a0000000000000000000000000000000000000000000000000000000008152600401611a099061299b565b60405180910390fd5b611a26676cdd6a559b15d04560c01b611762565b611a3a67d514418ef0e29d1f60c01b611762565b611a4e67e6299beac2657d7b60c01b611762565b611a62673b4d99b5bd8e8d9860c01b611762565b600073ffffffffffffffffffffffffffffffffffffffff166002600083815260200190815260200160002060009054906101000a900473ffffffffffffffffffffffffffffffffffffffff1673ffffffffffffffffffffffffffffffffffffffff1614611b04576040517f08c379a0000000000000000000000000000000000000000000000000000000008152600401611afb90612a07565b60405180910390fd5b611b18679400171e74b5904360c01b611762565b611b2c674b53363aa763c81060c01b611762565b600360008373ffffffffffffffffffffffffffffffffffffffff1673ffffffffffffffffffffffffffffffffffffffff1681526020019081526020016000206000815480929190611b7c90612676565b9190505550611b9567b42f8ceeb9d5f94160c01b611762565b816002600083815260200190815260200160002060006101000a81548173ffffffffffffffffffffffffffffffffffffffff021916908373ffffffffffffffffffffffffffffffffffffffff160217905550611bfb679e1d27973d1101d160c01b611762565b611c0f67d86b036c6abc375c60c01b611762565b808273ffffffffffffffffffffffffffffffffffffffff16600073ffffffffffffffffffffffffffffffffffffffff167fddf252ad1be2c89b69c2b068fc378daa952ba7f163c4a11628f55a4df523b3ef60405160405180910390a45050565b611c836757116a0b9a530d6e60c01b611762565b611c97674479499be817410460c01b611762565b611cab67a755e4dc9176311a60c01b611762565b60006002600083815260200190815260200160002060009054906101000a900473ffffffffffffffffffffffffffffffffffffffff169050611cf767ab9b1c2a301bb61460c01b611762565b611d0b679ba8818596a047b860c01b611762565b611d1f678f5e22e895d9dc0e60c01b611762565b600073ffffffffffffffffffffffffffffffffffffffff168173ffffffffffffffffffffffffffffffffffffffff1603611d8e576040517f08c379a0000000000000000000000000000000000000000000000000000000008152600401611d8590612a73565b60405180910390fd5b611da2672c38e77dedd25c3c60c01b611762565b611db66728dd1cf66770819e60c01b611762565b6001600360008373ffffffffffffffffffffffffffffffffffffffff1673ffffffffffffffffffffffffffffffffffffffff1681526020019081526020016000206000828254611e069190612a93565b92505081905550611e2167782e66eed3dff15d60c01b611762565b6002600083815260200190815260200160002060006101000a81549073ffffffffffffffffffffffffffffffffffffffff0219169055611e6b67b93b4990233eeb9c60c01b611762565b6004600083815260200190815260200160002060006101000a81549073ffffffffffffffffffffffffffffffffffffffff0219169055611eb567391385e42aadd8fe60c01b611762565b611ec9678c5f18feb4bdfc6060c01b611762565b81600073ffffffffffffffffffffffffffffffffffffffff168273ffffffffffffffffffffffffffffffffffffffff167fddf252ad1be2c89b69c2b068fc378daa952ba7f163c4a11628f55a4df523b3ef60405160405180910390a45050565b600080fd5b600080fd5b60007fffffffff0000000000000000000000000000000000000000000000000000000082169050919050565b611f6881611f33565b8114611f7357600080fd5b50565b600081359050611f8581611f5f565b92915050565b600060208284031215611fa157611fa0611f29565b5b6000611faf84828501611f76565b91505092915050565b60008115159050919050565b611fcd81611fb8565b82525050565b6000602082019050611fe86000830184611fc4565b92915050565b600081519050919050565b600082825260208201905092915050565b60005b8381101561202857808201518184015260208101905061200d565b60008484015250505050565b6000601f19601f8301169050919050565b600061205082611fee565b61205a8185611ff9565b935061206a81856020860161200a565b61207381612034565b840191505092915050565b600060208201905081810360008301526120988184612045565b905092915050565b6000819050919050565b6120b3816120a0565b81146120be57600080fd5b50565b6000813590506120d0816120aa565b92915050565b6000602082840312156120ec576120eb611f29565b5b60006120fa848285016120c1565b91505092915050565b600073ffffffffffffffffffffffffffffffffffffffff82169050919050565b600061212e82612103565b9050919050565b61213e81612123565b82525050565b60006020820190506121596000830184612135565b92915050565b61216881612123565b811461217357600080fd5b50565b6000813590506121858161215f565b92915050565b600080604083850312156121a2576121a1611f29565b5b60006121b085828601612176565b92505060206121c1858286016120c1565b9150509250929050565b6000806000606084860312156121e4576121e3611f29565b5b60006121f286828701612176565b935050602061220386828701612176565b9250506040612214868287016120c1565b9150509250925092565b60006020828403121561223457612233611f29565b5b600061224284828501612176565b91505092915050565b612254816120a0565b82525050565b600060208201905061226f600083018461224b565b92915050565b61227e81611fb8565b811461228957600080fd5b50565b60008135905061229b81612275565b92915050565b600080604083850312156122b8576122b7611f29565b5b60006122c685828601612176565b92505060206122d78582860161228c565b9150509250929050565b600080fd5b600080fd5b600080fd5b60008083601f840112612306576123056122e1565b5b8235905067ffffffffffffffff811115612323576123226122e6565b5b60208301915083600182028301111561233f5761233e6122eb565b5b9250929050565b60008060008060006080868803121561236257612361611f29565b5b600061237088828901612176565b955050602061238188828901612176565b9450506040612392888289016120c1565b935050606086013567ffffffffffffffff8111156123b3576123b2611f2e565b5b6123bf888289016122f0565b92509250509295509295909350565b600080604083850312156123e5576123e4611f29565b5b60006123f385828601612176565b925050602061240485828601612176565b9150509250929050565b7f4e487b7100000000000000000000000000000000000000000000000000000000600052602260045260246000fd5b6000600282049050600182168061245557607f821691505b6020821081036124685761246761240e565b5b50919050565b7f746f6b656e20646f65736e277420657869737400000000000000000000000000600082015250565b60006124a4601383611ff9565b91506124af8261246e565b602082019050919050565b600060208201905081810360008301526124d381612497565b9050919050565b7f6e6f7420617574686f72697a6564000000000000000000000000000000000000600082015250565b6000612510600e83611ff9565b915061251b826124da565b602082019050919050565b6000602082019050818103600083015261253f81612503565b9050919050565b7f66726f6d20213d206f776e657200000000000000000000000000000000000000600082015250565b600061257c600d83611ff9565b915061258782612546565b602082019050919050565b600060208201905081810360008301526125ab8161256f565b9050919050565b7f7472616e7366657220746f207a65726f20616464726573730000000000000000600082015250565b60006125e8601883611ff9565b91506125f3826125b2565b602082019050919050565b60006020820190508181036000830152612617816125db565b9050919050565b7f4e487b7100000000000000000000000000000000000000000000000000000000600052601160045260246000fd5b6000612658826120a0565b91506000820361266b5761266a61261e565b5b600182039050919050565b6000612681826120a0565b91507fffffffffffffffffffffffffffffffffffffffffffffffffffffffffffffffff82036126b3576126b261261e565b5b600182019050919050565b600082825260208201905092915050565b50565b60006126df6000836126be565b91506126ea826126cf565b600082019050919050565b600060808201905061270a6000830186612135565b6127176020830185612135565b612724604083018461224b565b8181036060830152612735816126d2565b9050949350505050565b60008151905061274e81611f5f565b92915050565b60006020828403121561276a57612769611f29565b5b60006127788482850161273f565b91505092915050565b7f756e7361666520726563697069656e7400000000000000000000000000000000600082015250565b60006127b7601083611ff9565b91506127c282612781565b602082019050919050565b600060208201905081810360008301526127e6816127aa565b9050919050565b7f6e6f74206f776e65720000000000000000000000000000000000000000000000600082015250565b6000612823600983611ff9565b915061282e826127ed565b602082019050919050565b6000602082019050818103600083015261285281612816565b9050919050565b7f6f776e6572203d207a65726f2061646472657373000000000000000000000000600082015250565b600061288f601483611ff9565b915061289a82612859565b602082019050919050565b600060208201905081810360008301526128be81612882565b9050919050565b82818337600083830152505050565b60006128e083856126be565b93506128ed8385846128c5565b6128f683612034565b840190509392505050565b60006080820190506129166000830188612135565b6129236020830187612135565b612930604083018661224b565b81810360608301526129438184866128d4565b90509695505050505050565b7f6d696e7420746f207a65726f2061646472657373000000000000000000000000600082015250565b6000612985601483611ff9565b91506129908261294f565b602082019050919050565b600060208201905081810360008301526129b481612978565b9050919050565b7f616c7265616479206d696e746564000000000000000000000000000000000000600082015250565b60006129f1600e83611ff9565b91506129fc826129bb565b602082019050919050565b60006020820190508181036000830152612a20816129e4565b9050919050565b7f6e6f74206d696e74656400000000000000000000000000000000000000000000600082015250565b6000612a5d600a83611ff9565b9150612a6882612a27565b602082019050919050565b60006020820190508181036000830152612a8c81612a50565b9050919050565b6000612a9e826120a0565b9150612aa9836120a0565b9250828203905081811115612ac157612ac061261e565b5b9291505056fea26469706673582212206efe61d52827cfd5cb9290b4c0e650036ed320b36c8388b636fbfec7d4feb66564736f6c63430008110033","opcodes":"PUSH1 0x80 PUSH1 0x40 MSTORE CALLVALUE DUP1 ISZERO PUSH3 0x11 JUMPI PUSH1 0x0 DUP1 REVERT JUMPDEST POP PUSH3 0x2E PUSH8 0x6B22DEFBDFEC65E8 PUSH1 0xC0 SHL PUSH3 0xFA PUSH1 0x20 SHL PUSH1 0x20 SHR JUMP JUMPDEST PUSH3 0x4A PUSH8 0xF1B0CCE6DE638A20 PUSH1 0xC0 SHL PUSH3 0xFA PUSH1 0x20 SHL PUSH1 0x20 SHR JUMP JUMPDEST PUSH1 0x40 MLOAD DUP1 PUSH1 0x40 ADD PUSH1 0x40 MSTORE DUP1 PUSH1 0x5 DUP2 MSTORE PUSH1 0x20 ADD PUSH32 0x4172706974000000000000000000000000000000000000000000000000000000 DUP2 MSTORE POP PUSH1 0x0 SWAP1 DUP2 PUSH3 0x90 SWAP2 SWAP1 PUSH3 0x377 JUMP JUMPDEST POP PUSH3 0xAD PUSH8 0x3F85EA010A0AA0AB PUSH1 0xC0 SHL PUSH3 0xFA PUSH1 0x20 SHL PUSH1 0x20 SHR JUMP JUMPDEST PUSH1 0x40 MLOAD DUP1 PUSH1 0x40 ADD PUSH1 0x40 MSTORE DUP1 PUSH1 0x3 DUP2 MSTORE PUSH1 0x20 ADD PUSH32 0x4152500000000000000000000000000000000000000000000000000000000000 DUP2 MSTORE POP PUSH1 0x1 SWAP1 DUP2 PUSH3 0xF3 SWAP2 SWAP1 PUSH3 0x377 JUMP JUMPDEST POP PUSH3 0x45E JUMP JUMPDEST POP JUMP JUMPDEST PUSH1 0x0 DUP2 MLOAD SWAP1 POP SWAP2 SWAP1 POP JUMP JUMPDEST PUSH32 0x4E487B7100000000000000000000000000000000000000000000000000000000 PUSH1 0x0 MSTORE PUSH1 0x41 PUSH1 0x4 MSTORE PUSH1 0x24 PUSH1 0x0 REVERT JUMPDEST PUSH32 0x4E487B7100000000000000000000000000000000000000000000000000000000 PUSH1 0x0 MSTORE PUSH1 0x22 PUSH1 0x4 MSTORE PUSH1 0x24 PUSH1 0x0 REVERT JUMPDEST PUSH1 0x0 PUSH1 0x2 DUP3 DIV SWAP1 POP PUSH1 0x1 DUP3 AND DUP1 PUSH3 0x17F JUMPI PUSH1 0x7F DUP3 AND SWAP2 POP JUMPDEST PUSH1 0x20 DUP3 LT DUP2 SUB PUSH3 0x195 JUMPI PUSH3 0x194 PUSH3 0x137 JUMP JUMPDEST JUMPDEST POP SWAP2 SWAP1 POP JUMP JUMPDEST PUSH1 0x0 DUP2 SWAP1 POP DUP2 PUSH1 0x0 MSTORE PUSH1 0x20 PUSH1 0x0 KECCAK256 SWAP1 POP SWAP2 SWAP1 POP JUMP JUMPDEST PUSH1 0x0 PUSH1 0x20 PUSH1 0x1F DUP4 ADD DIV SWAP1 POP SWAP2 SWAP1 POP JUMP JUMPDEST PUSH1 0x0 DUP3 DUP3 SHL SWAP1 POP SWAP3 SWAP2 POP POP JUMP JUMPDEST PUSH1 0x0 PUSH1 0x8 DUP4 MUL PUSH3 0x1FF PUSH32 0xFFFFFFFFFFFFFFFFFFFFFFFFFFFFFFFFFFFFFFFFFFFFFFFFFFFFFFFFFFFFFFFF DUP3 PUSH3 0x1C0 JUMP JUMPDEST PUSH3 0x20B DUP7 DUP4 PUSH3 0x1C0 JUMP JUMPDEST SWAP6 POP DUP1 NOT DUP5 AND SWAP4 POP DUP1 DUP7 AND DUP5 OR SWAP3 POP POP POP SWAP4 SWAP3 POP POP POP JUMP JUMPDEST PUSH1 0x0 DUP2 SWAP1 POP SWAP2 SWAP1 POP JUMP JUMPDEST PUSH1 0x0 DUP2 SWAP1 POP SWAP2 SWAP1 POP JUMP JUMPDEST PUSH1 0x0 PUSH3 0x258 PUSH3 0x252 PUSH3 0x24C DUP5 PUSH3 0x223 JUMP JUMPDEST PUSH3 0x22D JUMP JUMPDEST PUSH3 0x223 JUMP JUMPDEST SWAP1 POP SWAP2 SWAP1 POP JUMP JUMPDEST PUSH1 0x0 DUP2 SWAP1 POP SWAP2 SWAP1 POP JUMP JUMPDEST PUSH3 0x274 DUP4 PUSH3 0x237 JUMP JUMPDEST PUSH3 0x28C PUSH3 0x283 DUP3 PUSH3 0x25F JUMP JUMPDEST DUP5 DUP5 SLOAD PUSH3 0x1CD JUMP JUMPDEST DUP3 SSTORE POP POP POP POP JUMP JUMPDEST PUSH1 0x0 SWAP1 JUMP JUMPDEST PUSH3 0x2A3 PUSH3 0x294 JUMP JUMPDEST PUSH3 0x2B0 DUP2 DUP5 DUP5 PUSH3 0x269 JUMP JUMPDEST POP POP POP JUMP JUMPDEST JUMPDEST DUP2 DUP2 LT ISZERO PUSH3 0x2D8 JUMPI PUSH3 0x2CC PUSH1 0x0 DUP3 PUSH3 0x299 JUMP JUMPDEST PUSH1 0x1 DUP2 ADD SWAP1 POP PUSH3 0x2B6 JUMP JUMPDEST POP POP JUMP JUMPDEST PUSH1 0x1F DUP3 GT ISZERO PUSH3 0x327 JUMPI PUSH3 0x2F1 DUP2 PUSH3 0x19B JUMP JUMPDEST PUSH3 0x2FC DUP5 PUSH3 0x1B0 JUMP JUMPDEST DUP2 ADD PUSH1 0x20 DUP6 LT ISZERO PUSH3 0x30C JUMPI DUP2 SWAP1 POP JUMPDEST PUSH3 0x324 PUSH3 0x31B DUP6 PUSH3 0x1B0 JUMP JUMPDEST DUP4 ADD DUP3 PUSH3 0x2B5 JUMP JUMPDEST POP POP JUMPDEST POP POP POP JUMP JUMPDEST PUSH1 0x0 DUP3 DUP3 SHR SWAP1 POP SWAP3 SWAP2 POP POP JUMP JUMPDEST PUSH1 0x0 PUSH3 0x34C PUSH1 0x0 NOT DUP5 PUSH1 0x8 MUL PUSH3 0x32C JUMP JUMPDEST NOT DUP1 DUP4 AND SWAP2 POP POP SWAP3 SWAP2 POP POP JUMP JUMPDEST PUSH1 0x0 PUSH3 0x367 DUP4 DUP4 PUSH3 0x339 JUMP JUMPDEST SWAP2 POP DUP3 PUSH1 0x2 MUL DUP3 OR SWAP1 POP SWAP3 SWAP2 POP POP JUMP JUMPDEST PUSH3 0x382 DUP3 PUSH3 0xFD JUMP JUMPDEST PUSH8 0xFFFFFFFFFFFFFFFF DUP2 GT ISZERO PUSH3 0x39E JUMPI PUSH3 0x39D PUSH3 0x108 JUMP JUMPDEST JUMPDEST PUSH3 0x3AA DUP3 SLOAD PUSH3 0x166 JUMP JUMPDEST PUSH3 0x3B7 DUP3 DUP3 DUP6 PUSH3 0x2DC JUMP JUMPDEST PUSH1 0x0 PUSH1 0x20 SWAP1 POP PUSH1 0x1F DUP4 GT PUSH1 0x1 DUP2 EQ PUSH3 0x3EF JUMPI PUSH1 0x0 DUP5 ISZERO PUSH3 0x3DA JUMPI DUP3 DUP8 ADD MLOAD SWAP1 POP JUMPDEST PUSH3 0x3E6 DUP6 DUP3 PUSH3 0x359 JUMP JUMPDEST DUP7 SSTORE POP PUSH3 0x456 JUMP JUMPDEST PUSH1 0x1F NOT DUP5 AND PUSH3 0x3FF DUP7 PUSH3 0x19B JUMP JUMPDEST PUSH1 0x0 JUMPDEST DUP3 DUP2 LT ISZERO PUSH3 0x429 JUMPI DUP5 DUP10 ADD MLOAD DUP3 SSTORE PUSH1 0x1 DUP3 ADD SWAP2 POP PUSH1 0x20 DUP6 ADD SWAP5 POP PUSH1 0x20 DUP2 ADD SWAP1 POP PUSH3 0x402 JUMP JUMPDEST DUP7 DUP4 LT ISZERO PUSH3 0x449 JUMPI DUP5 DUP10 ADD MLOAD PUSH3 0x445 PUSH1 0x1F DUP10 AND DUP3 PUSH3 0x339 JUMP JUMPDEST DUP4 SSTORE POP JUMPDEST PUSH1 0x1 PUSH1 0x2 DUP9 MUL ADD DUP9 SSTORE POP POP POP JUMPDEST POP POP POP POP POP POP JUMP JUMPDEST PUSH2 0x2AFD DUP1 PUSH3 0x46E PUSH1 0x0 CODECOPY PUSH1 0x0 RETURN INVALID PUSH1 0x80 PUSH1 0x40 MSTORE CALLVALUE DUP1 ISZERO PUSH2 0x10 JUMPI PUSH1 0x0 DUP1 REVERT JUMPDEST POP PUSH1 0x4 CALLDATASIZE LT PUSH2 0xEA JUMPI PUSH1 0x0 CALLDATALOAD PUSH1 0xE0 SHR DUP1 PUSH4 0x42966C68 GT PUSH2 0x8C JUMPI DUP1 PUSH4 0x95D89B41 GT PUSH2 0x66 JUMPI DUP1 PUSH4 0x95D89B41 EQ PUSH2 0x259 JUMPI DUP1 PUSH4 0xA22CB465 EQ PUSH2 0x277 JUMPI DUP1 PUSH4 0xB88D4FDE EQ PUSH2 0x293 JUMPI DUP1 PUSH4 0xE985E9C5 EQ PUSH2 0x2AF JUMPI PUSH2 0xEA JUMP JUMPDEST DUP1 PUSH4 0x42966C68 EQ PUSH2 0x1DD JUMPI DUP1 PUSH4 0x6352211E EQ PUSH2 0x1F9 JUMPI DUP1 PUSH4 0x70A08231 EQ PUSH2 0x229 JUMPI PUSH2 0xEA JUMP JUMPDEST DUP1 PUSH4 0x95EA7B3 GT PUSH2 0xC8 JUMPI DUP1 PUSH4 0x95EA7B3 EQ PUSH2 0x16D JUMPI DUP1 PUSH4 0x23B872DD EQ PUSH2 0x189 JUMPI DUP1 PUSH4 0x40C10F19 EQ PUSH2 0x1A5 JUMPI DUP1 PUSH4 0x42842E0E EQ PUSH2 0x1C1 JUMPI PUSH2 0xEA JUMP JUMPDEST DUP1 PUSH4 0x1FFC9A7 EQ PUSH2 0xEF JUMPI DUP1 PUSH4 0x6FDDE03 EQ PUSH2 0x11F JUMPI DUP1 PUSH4 0x81812FC EQ PUSH2 0x13D JUMPI JUMPDEST PUSH1 0x0 DUP1 REVERT JUMPDEST PUSH2 0x109 PUSH1 0x4 DUP1 CALLDATASIZE SUB DUP2 ADD SWAP1 PUSH2 0x104 SWAP2 SWAP1 PUSH2 0x1F8B JUMP JUMPDEST PUSH2 0x2DF JUMP JUMPDEST PUSH1 0x40 MLOAD PUSH2 0x116 SWAP2 SWAP1 PUSH2 0x1FD3 JUMP JUMPDEST PUSH1 0x40 MLOAD DUP1 SWAP2 SUB SWAP1 RETURN JUMPDEST PUSH2 0x127 PUSH2 0x425 JUMP JUMPDEST PUSH1 0x40 MLOAD PUSH2 0x134 SWAP2 SWAP1 PUSH2 0x207E JUMP JUMPDEST PUSH1 0x40 MLOAD DUP1 SWAP2 SUB SWAP1 RETURN JUMPDEST PUSH2 0x157 PUSH1 0x4 DUP1 CALLDATASIZE SUB DUP2 ADD SWAP1 PUSH2 0x152 SWAP2 SWAP1 PUSH2 0x20D6 JUMP JUMPDEST PUSH2 0x4B3 JUMP JUMPDEST PUSH1 0x40 MLOAD PUSH2 0x164 SWAP2 SWAP1 PUSH2 0x2144 JUMP JUMPDEST PUSH1 0x40 MLOAD DUP1 SWAP2 SUB SWAP1 RETURN JUMPDEST PUSH2 0x187 PUSH1 0x4 DUP1 CALLDATASIZE SUB DUP2 ADD SWAP1 PUSH2 0x182 SWAP2 SWAP1 PUSH2 0x218B JUMP JUMPDEST PUSH2 0x61E JUMP JUMPDEST STOP JUMPDEST PUSH2 0x1A3 PUSH1 0x4 DUP1 CALLDATASIZE SUB DUP2 ADD SWAP1 PUSH2 0x19E SWAP2 SWAP1 PUSH2 0x21CB JUMP JUMPDEST PUSH2 0x907 JUMP JUMPDEST STOP JUMPDEST PUSH2 0x1BF PUSH1 0x4 DUP1 CALLDATASIZE SUB DUP2 ADD SWAP1 PUSH2 0x1BA SWAP2 SWAP1 PUSH2 0x218B JUMP JUMPDEST PUSH2 0xD6F JUMP JUMPDEST STOP JUMPDEST PUSH2 0x1DB PUSH1 0x4 DUP1 CALLDATASIZE SUB DUP2 ADD SWAP1 PUSH2 0x1D6 SWAP2 SWAP1 PUSH2 0x21CB JUMP JUMPDEST PUSH2 0xDB9 JUMP JUMPDEST STOP JUMPDEST PUSH2 0x1F7 PUSH1 0x4 DUP1 CALLDATASIZE SUB DUP2 ADD SWAP1 PUSH2 0x1F2 SWAP2 SWAP1 PUSH2 0x20D6 JUMP JUMPDEST PUSH2 0xFB5 JUMP JUMPDEST STOP JUMPDEST PUSH2 0x213 PUSH1 0x4 DUP1 CALLDATASIZE SUB DUP2 ADD SWAP1 PUSH2 0x20E SWAP2 SWAP1 PUSH2 0x20D6 JUMP JUMPDEST PUSH2 0x10EE JUMP JUMPDEST PUSH1 0x40 MLOAD PUSH2 0x220 SWAP2 SWAP1 PUSH2 0x2144 JUMP JUMPDEST PUSH1 0x40 MLOAD DUP1 SWAP2 SUB SWAP1 RETURN JUMPDEST PUSH2 0x243 PUSH1 0x4 DUP1 CALLDATASIZE SUB DUP2 ADD SWAP1 PUSH2 0x23E SWAP2 SWAP1 PUSH2 0x221E JUMP JUMPDEST PUSH2 0x1212 JUMP JUMPDEST PUSH1 0x40 MLOAD PUSH2 0x250 SWAP2 SWAP1 PUSH2 0x225A JUMP JUMPDEST PUSH1 0x40 MLOAD DUP1 SWAP2 SUB SWAP1 RETURN JUMPDEST PUSH2 0x261 PUSH2 0x1356 JUMP JUMPDEST PUSH1 0x40 MLOAD PUSH2 0x26E SWAP2 SWAP1 PUSH2 0x207E JUMP JUMPDEST PUSH1 0x40 MLOAD DUP1 SWAP2 SUB SWAP1 RETURN JUMPDEST PUSH2 0x291 PUSH1 0x4 DUP1 CALLDATASIZE SUB DUP2 ADD SWAP1 PUSH2 0x28C SWAP2 SWAP1 PUSH2 0x22A1 JUMP JUMPDEST PUSH2 0x13E4 JUMP JUMPDEST STOP JUMPDEST PUSH2 0x2AD PUSH1 0x4 DUP1 CALLDATASIZE SUB DUP2 ADD SWAP1 PUSH2 0x2A8 SWAP2 SWAP1 PUSH2 0x2346 JUMP JUMPDEST PUSH2 0x1531 JUMP JUMPDEST STOP JUMPDEST PUSH2 0x2C9 PUSH1 0x4 DUP1 CALLDATASIZE SUB DUP2 ADD SWAP1 PUSH2 0x2C4 SWAP2 SWAP1 PUSH2 0x23CE JUMP JUMPDEST PUSH2 0x1733 JUMP JUMPDEST PUSH1 0x40 MLOAD PUSH2 0x2D6 SWAP2 SWAP1 PUSH2 0x1FD3 JUMP JUMPDEST PUSH1 0x40 MLOAD DUP1 SWAP2 SUB SWAP1 RETURN JUMPDEST PUSH1 0x0 PUSH2 0x2F5 PUSH8 0x5334F6716B58BD2D PUSH1 0xC0 SHL PUSH2 0x1762 JUMP JUMPDEST PUSH2 0x309 PUSH8 0xE5848963A1A39BAA PUSH1 0xC0 SHL PUSH2 0x1762 JUMP JUMPDEST PUSH2 0x31D PUSH8 0x87FCB6458988E79D PUSH1 0xC0 SHL PUSH2 0x1762 JUMP JUMPDEST PUSH32 0x80AC58CD00000000000000000000000000000000000000000000000000000000 PUSH28 0xFFFFFFFFFFFFFFFFFFFFFFFFFFFFFFFFFFFFFFFFFFFFFFFFFFFFFFFF NOT AND DUP3 PUSH28 0xFFFFFFFFFFFFFFFFFFFFFFFFFFFFFFFFFFFFFFFFFFFFFFFFFFFFFFFF NOT AND EQ DUP1 ISZERO PUSH2 0x39A JUMPI POP PUSH2 0x399 PUSH8 0x40B7720AC54B1455 PUSH1 0xC0 SHL PUSH2 0x1765 JUMP JUMPDEST JUMPDEST DUP1 PUSH2 0x41E JUMPI POP PUSH32 0x1FFC9A700000000000000000000000000000000000000000000000000000000 PUSH28 0xFFFFFFFFFFFFFFFFFFFFFFFFFFFFFFFFFFFFFFFFFFFFFFFFFFFFFFFF NOT AND DUP3 PUSH28 0xFFFFFFFFFFFFFFFFFFFFFFFFFFFFFFFFFFFFFFFFFFFFFFFFFFFFFFFF NOT AND EQ DUP1 ISZERO PUSH2 0x41D JUMPI POP PUSH2 0x41C PUSH8 0x9A7402C22105C0DD PUSH1 0xC0 SHL PUSH2 0x1765 JUMP JUMPDEST JUMPDEST JUMPDEST SWAP1 POP SWAP2 SWAP1 POP JUMP JUMPDEST PUSH1 0x0 DUP1 SLOAD PUSH2 0x432 SWAP1 PUSH2 0x243D JUMP JUMPDEST DUP1 PUSH1 0x1F ADD PUSH1 0x20 DUP1 SWAP2 DIV MUL PUSH1 0x20 ADD PUSH1 0x40 MLOAD SWAP1 DUP2 ADD PUSH1 0x40 MSTORE DUP1 SWAP3 SWAP2 SWAP1 DUP2 DUP2 MSTORE PUSH1 0x20 ADD DUP3 DUP1 SLOAD PUSH2 0x45E SWAP1 PUSH2 0x243D JUMP JUMPDEST DUP1 ISZERO PUSH2 0x4AB JUMPI DUP1 PUSH1 0x1F LT PUSH2 0x480 JUMPI PUSH2 0x100 DUP1 DUP4 SLOAD DIV MUL DUP4 MSTORE SWAP2 PUSH1 0x20 ADD SWAP2 PUSH2 0x4AB JUMP JUMPDEST DUP3 ADD SWAP2 SWAP1 PUSH1 0x0 MSTORE PUSH1 0x20 PUSH1 0x0 KECCAK256 SWAP1 JUMPDEST DUP2 SLOAD DUP2 MSTORE SWAP1 PUSH1 0x1 ADD SWAP1 PUSH1 0x20 ADD DUP1 DUP4 GT PUSH2 0x48E JUMPI DUP3 SWAP1 SUB PUSH1 0x1F AND DUP3 ADD SWAP2 JUMPDEST POP POP POP POP POP DUP2 JUMP JUMPDEST PUSH1 0x0 PUSH2 0x4C9 PUSH8 0x3AE3F034A692F3BA PUSH1 0xC0 SHL PUSH2 0x1762 JUMP JUMPDEST PUSH2 0x4DD PUSH8 0xE58C74283361AE27 PUSH1 0xC0 SHL PUSH2 0x1762 JUMP JUMPDEST PUSH2 0x4F1 PUSH8 0x328199A8F9E6D123 PUSH1 0xC0 SHL PUSH2 0x1762 JUMP JUMPDEST PUSH2 0x505 PUSH8 0x7EBBC0CEE3249F7E PUSH1 0xC0 SHL PUSH2 0x1762 JUMP JUMPDEST PUSH1 0x0 PUSH20 0xFFFFFFFFFFFFFFFFFFFFFFFFFFFFFFFFFFFFFFFF AND PUSH1 0x2 PUSH1 0x0 DUP5 DUP2 MSTORE PUSH1 0x20 ADD SWAP1 DUP2 MSTORE PUSH1 0x20 ADD PUSH1 0x0 KECCAK256 PUSH1 0x0 SWAP1 SLOAD SWAP1 PUSH2 0x100 EXP SWAP1 DIV PUSH20 0xFFFFFFFFFFFFFFFFFFFFFFFFFFFFFFFFFFFFFFFF AND PUSH20 0xFFFFFFFFFFFFFFFFFFFFFFFFFFFFFFFFFFFFFFFF AND SUB PUSH2 0x5A7 JUMPI PUSH1 0x40 MLOAD PUSH32 0x8C379A000000000000000000000000000000000000000000000000000000000 DUP2 MSTORE PUSH1 0x4 ADD PUSH2 0x59E SWAP1 PUSH2 0x24BA JUMP JUMPDEST PUSH1 0x40 MLOAD DUP1 SWAP2 SUB SWAP1 REVERT JUMPDEST PUSH2 0x5BB PUSH8 0x6ACCB9C64B99AC3 PUSH1 0xC0 SHL PUSH2 0x1762 JUMP JUMPDEST PUSH2 0x5CF PUSH8 0x856765AF75FB2166 PUSH1 0xC0 SHL PUSH2 0x1762 JUMP JUMPDEST PUSH2 0x5E3 PUSH8 0x6A0DFBB2DED841A9 PUSH1 0xC0 SHL PUSH2 0x1762 JUMP JUMPDEST PUSH1 0x4 PUSH1 0x0 DUP4 DUP2 MSTORE PUSH1 0x20 ADD SWAP1 DUP2 MSTORE PUSH1 0x20 ADD PUSH1 0x0 KECCAK256 PUSH1 0x0 SWAP1 SLOAD SWAP1 PUSH2 0x100 EXP SWAP1 DIV PUSH20 0xFFFFFFFFFFFFFFFFFFFFFFFFFFFFFFFFFFFFFFFF AND SWAP1 POP SWAP2 SWAP1 POP JUMP JUMPDEST PUSH2 0x632 PUSH8 0xC06F352B72D2EE93 PUSH1 0xC0 SHL PUSH2 0x1762 JUMP JUMPDEST PUSH2 0x646 PUSH8 0x5A4C5040793DEA03 PUSH1 0xC0 SHL PUSH2 0x1762 JUMP JUMPDEST PUSH2 0x65A PUSH8 0x843F30EE0383E6E8 PUSH1 0xC0 SHL PUSH2 0x1762 JUMP JUMPDEST PUSH1 0x0 PUSH1 0x2 PUSH1 0x0 DUP4 DUP2 MSTORE PUSH1 0x20 ADD SWAP1 DUP2 MSTORE PUSH1 0x20 ADD PUSH1 0x0 KECCAK256 PUSH1 0x0 SWAP1 SLOAD SWAP1 PUSH2 0x100 EXP SWAP1 DIV PUSH20 0xFFFFFFFFFFFFFFFFFFFFFFFFFFFFFFFFFFFFFFFF AND SWAP1 POP PUSH2 0x6A6 PUSH8 0x515519F82B0B2523 PUSH1 0xC0 SHL PUSH2 0x1762 JUMP JUMPDEST PUSH2 0x6BA PUSH8 0x7D0624BE5FB71440 PUSH1 0xC0 SHL PUSH2 0x1762 JUMP JUMPDEST PUSH2 0x6CE PUSH8 0xDFC88DBE952CD28 PUSH1 0xC0 SHL PUSH2 0x1762 JUMP JUMPDEST DUP1 PUSH20 0xFFFFFFFFFFFFFFFFFFFFFFFFFFFFFFFFFFFFFFFF AND CALLER PUSH20 0xFFFFFFFFFFFFFFFFFFFFFFFFFFFFFFFFFFFFFFFF AND EQ DUP1 ISZERO PUSH2 0x719 JUMPI POP PUSH2 0x718 PUSH8 0xF08987176D9A0EB8 PUSH1 0xC0 SHL PUSH2 0x1765 JUMP JUMPDEST JUMPDEST DUP1 PUSH2 0x7C6 JUMPI POP PUSH1 0x5 PUSH1 0x0 DUP3 PUSH20 0xFFFFFFFFFFFFFFFFFFFFFFFFFFFFFFFFFFFFFFFF AND PUSH20 0xFFFFFFFFFFFFFFFFFFFFFFFFFFFFFFFFFFFFFFFF AND DUP2 MSTORE PUSH1 0x20 ADD SWAP1 DUP2 MSTORE PUSH1 0x20 ADD PUSH1 0x0 KECCAK256 PUSH1 0x0 CALLER PUSH20 0xFFFFFFFFFFFFFFFFFFFFFFFFFFFFFFFFFFFFFFFF AND PUSH20 0xFFFFFFFFFFFFFFFFFFFFFFFFFFFFFFFFFFFFFFFF AND DUP2 MSTORE PUSH1 0x20 ADD SWAP1 DUP2 MSTORE PUSH1 0x20 ADD PUSH1 0x0 KECCAK256 PUSH1 0x0 SWAP1 SLOAD SWAP1 PUSH2 0x100 EXP SWAP1 DIV PUSH1 0xFF AND DUP1 ISZERO PUSH2 0x7C5 JUMPI POP PUSH2 0x7C4 PUSH8 0x82EFE44665D8CDA0 PUSH1 0xC0 SHL PUSH2 0x1765 JUMP JUMPDEST JUMPDEST JUMPDEST PUSH2 0x805 JUMPI PUSH1 0x40 MLOAD PUSH32 0x8C379A000000000000000000000000000000000000000000000000000000000 DUP2 MSTORE PUSH1 0x4 ADD PUSH2 0x7FC SWAP1 PUSH2 0x2526 JUMP JUMPDEST PUSH1 0x40 MLOAD DUP1 SWAP2 SUB SWAP1 REVERT JUMPDEST PUSH2 0x819 PUSH8 0x98E0F5A1462CC6B3 PUSH1 0xC0 SHL PUSH2 0x1762 JUMP JUMPDEST PUSH2 0x82D PUSH8 0x95C5AD01C3E60A28 PUSH1 0xC0 SHL PUSH2 0x1762 JUMP JUMPDEST DUP3 PUSH1 0x4 PUSH1 0x0 DUP5 DUP2 MSTORE PUSH1 0x20 ADD SWAP1 DUP2 MSTORE PUSH1 0x20 ADD PUSH1 0x0 KECCAK256 PUSH1 0x0 PUSH2 0x100 EXP DUP2 SLOAD DUP2 PUSH20 0xFFFFFFFFFFFFFFFFFFFFFFFFFFFFFFFFFFFFFFFF MUL NOT AND SWAP1 DUP4 PUSH20 0xFFFFFFFFFFFFFFFFFFFFFFFFFFFFFFFFFFFFFFFF AND MUL OR SWAP1 SSTORE POP PUSH2 0x893 PUSH8 0x9DC42076DE79E150 PUSH1 0xC0 SHL PUSH2 0x1762 JUMP JUMPDEST PUSH2 0x8A7 PUSH8 0x540BDE4360892D5D PUSH1 0xC0 SHL PUSH2 0x1762 JUMP JUMPDEST DUP2 DUP4 PUSH20 0xFFFFFFFFFFFFFFFFFFFFFFFFFFFFFFFFFFFFFFFF AND DUP3 PUSH20 0xFFFFFFFFFFFFFFFFFFFFFFFFFFFFFFFFFFFFFFFF AND PUSH32 0x8C5BE1E5EBEC7D5BD14F71427D1E84F3DD0314C0F7B2291E5B200AC8C7C3B925 PUSH1 0x40 MLOAD PUSH1 0x40 MLOAD DUP1 SWAP2 SUB SWAP1 LOG4 POP POP POP JUMP JUMPDEST PUSH2 0x91B PUSH8 0xB38AC976FDB24607 PUSH1 0xC0 SHL PUSH2 0x1762 JUMP JUMPDEST PUSH2 0x92F PUSH8 0x3A0BF6AA66DE3601 PUSH1 0xC0 SHL PUSH2 0x1762 JUMP JUMPDEST PUSH2 0x943 PUSH8 0xE4B404C3317DF6DA PUSH1 0xC0 SHL PUSH2 0x1762 JUMP JUMPDEST PUSH2 0x957 PUSH8 0x29B41A232D6C6047 PUSH1 0xC0 SHL PUSH2 0x1762 JUMP JUMPDEST PUSH1 0x2 PUSH1 0x0 DUP3 DUP2 MSTORE PUSH1 0x20 ADD SWAP1 DUP2 MSTORE PUSH1 0x20 ADD PUSH1 0x0 KECCAK256 PUSH1 0x0 SWAP1 SLOAD SWAP1 PUSH2 0x100 EXP SWAP1 DIV PUSH20 0xFFFFFFFFFFFFFFFFFFFFFFFFFFFFFFFFFFFFFFFF AND PUSH20 0xFFFFFFFFFFFFFFFFFFFFFFFFFFFFFFFFFFFFFFFF AND DUP4 PUSH20 0xFFFFFFFFFFFFFFFFFFFFFFFFFFFFFFFFFFFFFFFF AND EQ PUSH2 0x9F8 JUMPI PUSH1 0x40 MLOAD PUSH32 0x8C379A000000000000000000000000000000000000000000000000000000000 DUP2 MSTORE PUSH1 0x4 ADD PUSH2 0x9EF SWAP1 PUSH2 0x2592 JUMP JUMPDEST PUSH1 0x40 MLOAD DUP1 SWAP2 SUB SWAP1 REVERT JUMPDEST PUSH2 0xA0C PUSH8 0xC063BC1F13907040 PUSH1 0xC0 SHL PUSH2 0x1762 JUMP JUMPDEST PUSH2 0xA20 PUSH8 0x3537269872C65AD3 PUSH1 0xC0 SHL PUSH2 0x1762 JUMP JUMPDEST PUSH2 0xA34 PUSH8 0x20E08A04E2EF4D49 PUSH1 0xC0 SHL PUSH2 0x1762 JUMP JUMPDEST PUSH2 0xA48 PUSH8 0x65B1FE06546E6B09 PUSH1 0xC0 SHL PUSH2 0x1762 JUMP JUMPDEST PUSH1 0x0 PUSH20 0xFFFFFFFFFFFFFFFFFFFFFFFFFFFFFFFFFFFFFFFF AND DUP3 PUSH20 0xFFFFFFFFFFFFFFFFFFFFFFFFFFFFFFFFFFFFFFFF AND SUB PUSH2 0xAB7 JUMPI PUSH1 0x40 MLOAD PUSH32 0x8C379A000000000000000000000000000000000000000000000000000000000 DUP2 MSTORE PUSH1 0x4 ADD PUSH2 0xAAE SWAP1 PUSH2 0x25FE JUMP JUMPDEST PUSH1 0x40 MLOAD DUP1 SWAP2 SUB SWAP1 REVERT JUMPDEST PUSH2 0xACB PUSH8 0xDCA715EB7733EE4F PUSH1 0xC0 SHL PUSH2 0x1762 JUMP JUMPDEST PUSH2 0xADF PUSH8 0x243C44E5B5B33A8B PUSH1 0xC0 SHL PUSH2 0x1762 JUMP JUMPDEST PUSH2 0xAF3 PUSH8 0x6FC51F7B374E0C04 PUSH1 0xC0 SHL PUSH2 0x1762 JUMP JUMPDEST PUSH2 0xB07 PUSH8 0xAC9827ED147AB0EB PUSH1 0xC0 SHL PUSH2 0x1762 JUMP JUMPDEST PUSH2 0xB12 DUP4 CALLER DUP4 PUSH2 0x1770 JUMP JUMPDEST PUSH2 0xB51 JUMPI PUSH1 0x40 MLOAD PUSH32 0x8C379A000000000000000000000000000000000000000000000000000000000 DUP2 MSTORE PUSH1 0x4 ADD PUSH2 0xB48 SWAP1 PUSH2 0x2526 JUMP JUMPDEST PUSH1 0x40 MLOAD DUP1 SWAP2 SUB SWAP1 REVERT JUMPDEST PUSH2 0xB65 PUSH8 0x662FEAA40D53141F PUSH1 0xC0 SHL PUSH2 0x1762 JUMP JUMPDEST PUSH2 0xB79 PUSH8 0x889034C297A378D PUSH1 0xC0 SHL PUSH2 0x1762 JUMP JUMPDEST PUSH1 0x3 PUSH1 0x0 DUP5 PUSH20 0xFFFFFFFFFFFFFFFFFFFFFFFFFFFFFFFFFFFFFFFF AND PUSH20 0xFFFFFFFFFFFFFFFFFFFFFFFFFFFFFFFFFFFFFFFF AND DUP2 MSTORE PUSH1 0x20 ADD SWAP1 DUP2 MSTORE PUSH1 0x20 ADD PUSH1 0x0 KECCAK256 PUSH1 0x0 DUP2 SLOAD DUP1 SWAP3 SWAP2 SWAP1 PUSH2 0xBC9 SWAP1 PUSH2 0x264D JUMP JUMPDEST SWAP2 SWAP1 POP SSTORE POP PUSH2 0xBE2 PUSH8 0xCA1BA016DF639A37 PUSH1 0xC0 SHL PUSH2 0x1762 JUMP JUMPDEST PUSH1 0x3 PUSH1 0x0 DUP4 PUSH20 0xFFFFFFFFFFFFFFFFFFFFFFFFFFFFFFFFFFFFFFFF AND PUSH20 0xFFFFFFFFFFFFFFFFFFFFFFFFFFFFFFFFFFFFFFFF AND DUP2 MSTORE PUSH1 0x20 ADD SWAP1 DUP2 MSTORE PUSH1 0x20 ADD PUSH1 0x0 KECCAK256 PUSH1 0x0 DUP2 SLOAD DUP1 SWAP3 SWAP2 SWAP1 PUSH2 0xC32 SWAP1 PUSH2 0x2676 JUMP JUMPDEST SWAP2 SWAP1 POP SSTORE POP PUSH2 0xC4B PUSH8 0x4163059F97562EFB PUSH1 0xC0 SHL PUSH2 0x1762 JUMP JUMPDEST DUP2 PUSH1 0x2 PUSH1 0x0 DUP4 DUP2 MSTORE PUSH1 0x20 ADD SWAP1 DUP2 MSTORE PUSH1 0x20 ADD PUSH1 0x0 KECCAK256 PUSH1 0x0 PUSH2 0x100 EXP DUP2 SLOAD DUP2 PUSH20 0xFFFFFFFFFFFFFFFFFFFFFFFFFFFFFFFFFFFFFFFF MUL NOT AND SWAP1 DUP4 PUSH20 0xFFFFFFFFFFFFFFFFFFFFFFFFFFFFFFFFFFFFFFFF AND MUL OR SWAP1 SSTORE POP PUSH2 0xCB1 PUSH8 0x8B65FBDBA55BBA96 PUSH1 0xC0 SHL PUSH2 0x1762 JUMP JUMPDEST PUSH1 0x4 PUSH1 0x0 DUP3 DUP2 MSTORE PUSH1 0x20 ADD SWAP1 DUP2 MSTORE PUSH1 0x20 ADD PUSH1 0x0 KECCAK256 PUSH1 0x0 PUSH2 0x100 EXP DUP2 SLOAD SWAP1 PUSH20 0xFFFFFFFFFFFFFFFFFFFFFFFFFFFFFFFFFFFFFFFF MUL NOT AND SWAP1 SSTORE PUSH2 0xCFB PUSH8 0x962AEE8C91F43B99 PUSH1 0xC0 SHL PUSH2 0x1762 JUMP JUMPDEST PUSH2 0xD0F PUSH8 0x5214B52E46C95A94 PUSH1 0xC0 SHL PUSH2 0x1762 JUMP JUMPDEST DUP1 DUP3 PUSH20 0xFFFFFFFFFFFFFFFFFFFFFFFFFFFFFFFFFFFFFFFF AND DUP5 PUSH20 0xFFFFFFFFFFFFFFFFFFFFFFFFFFFFFFFFFFFFFFFF AND PUSH32 0xDDF252AD1BE2C89B69C2B068FC378DAA952BA7F163C4A11628F55A4DF523B3EF PUSH1 0x40 MLOAD PUSH1 0x40 MLOAD DUP1 SWAP2 SUB SWAP1 LOG4 POP POP POP JUMP JUMPDEST PUSH2 0xD83 PUSH8 0x51276CC240858C71 PUSH1 0xC0 SHL PUSH2 0x1950 JUMP JUMPDEST PUSH2 0xD97 PUSH8 0x6B3273583906C375 PUSH1 0xC0 SHL PUSH2 0x1950 JUMP JUMPDEST PUSH2 0xDAB PUSH8 0xD4E1EFFB8CA8644 PUSH1 0xC0 SHL PUSH2 0x1950 JUMP JUMPDEST PUSH2 0xDB5 DUP3 DUP3 PUSH2 0x1953 JUMP JUMPDEST POP POP JUMP JUMPDEST PUSH2 0xDCD PUSH8 0xC5C7CF1F4DFA6057 PUSH1 0xC0 SHL PUSH2 0x1762 JUMP JUMPDEST PUSH2 0xDE1 PUSH8 0xCD80B9AF50938B5 PUSH1 0xC0 SHL PUSH2 0x1762 JUMP JUMPDEST PUSH2 0xDF5 PUSH8 0xDC00EBD92FDC039F PUSH1 0xC0 SHL PUSH2 0x1762 JUMP JUMPDEST PUSH2 0xE00 DUP4 DUP4 DUP4 PUSH2 0x907 JUMP JUMPDEST PUSH2 0xE14 PUSH8 0x72456D3490147989 PUSH1 0xC0 SHL PUSH2 0x1762 JUMP JUMPDEST PUSH2 0xE28 PUSH8 0x399FBEEBB26EF9F PUSH1 0xC0 SHL PUSH2 0x1762 JUMP JUMPDEST PUSH2 0xE3C PUSH8 0x5E1029F9F102E28E PUSH1 0xC0 SHL PUSH2 0x1762 JUMP JUMPDEST PUSH1 0x0 DUP3 PUSH20 0xFFFFFFFFFFFFFFFFFFFFFFFFFFFFFFFFFFFFFFFF AND EXTCODESIZE EQ DUP1 ISZERO PUSH2 0xE73 JUMPI POP PUSH2 0xE72 PUSH8 0xB8AF6C205270EB07 PUSH1 0xC0 SHL PUSH2 0x1765 JUMP JUMPDEST JUMPDEST DUP1 PUSH2 0xF5D JUMPI POP PUSH4 0x150B7A02 PUSH1 0xE0 SHL PUSH28 0xFFFFFFFFFFFFFFFFFFFFFFFFFFFFFFFFFFFFFFFFFFFFFFFFFFFFFFFF NOT AND DUP3 PUSH20 0xFFFFFFFFFFFFFFFFFFFFFFFFFFFFFFFFFFFFFFFF AND PUSH4 0x150B7A02 CALLER DUP7 DUP6 PUSH1 0x40 MLOAD DUP5 PUSH4 0xFFFFFFFF AND PUSH1 0xE0 SHL DUP2 MSTORE PUSH1 0x4 ADD PUSH2 0xEDD SWAP4 SWAP3 SWAP2 SWAP1 PUSH2 0x26F5 JUMP JUMPDEST PUSH1 0x20 PUSH1 0x40 MLOAD DUP1 DUP4 SUB DUP2 PUSH1 0x0 DUP8 GAS CALL ISZERO DUP1 ISZERO PUSH2 0xEFC JUMPI RETURNDATASIZE PUSH1 0x0 DUP1 RETURNDATACOPY RETURNDATASIZE PUSH1 0x0 REVERT JUMPDEST POP POP POP POP PUSH1 0x40 MLOAD RETURNDATASIZE PUSH1 0x1F NOT PUSH1 0x1F DUP3 ADD AND DUP3 ADD DUP1 PUSH1 0x40 MSTORE POP DUP2 ADD SWAP1 PUSH2 0xF20 SWAP2 SWAP1 PUSH2 0x2754 JUMP JUMPDEST PUSH28 0xFFFFFFFFFFFFFFFFFFFFFFFFFFFFFFFFFFFFFFFFFFFFFFFFFFFFFFFF NOT AND EQ DUP1 ISZERO PUSH2 0xF5C JUMPI POP PUSH2 0xF5B PUSH8 0x81D3130F6427B2BF PUSH1 0xC0 SHL PUSH2 0x1765 JUMP JUMPDEST JUMPDEST JUMPDEST PUSH2 0xF9C JUMPI PUSH1 0x40 MLOAD PUSH32 0x8C379A000000000000000000000000000000000000000000000000000000000 DUP2 MSTORE PUSH1 0x4 ADD PUSH2 0xF93 SWAP1 PUSH2 0x27CD JUMP JUMPDEST PUSH1 0x40 MLOAD DUP1 SWAP2 SUB SWAP1 REVERT JUMPDEST PUSH2 0xFB0 PUSH8 0xF1C4120A914F9F13 PUSH1 0xC0 SHL PUSH2 0x1762 JUMP JUMPDEST POP POP POP JUMP JUMPDEST PUSH2 0xFC9 PUSH8 0x5898E24C57F8DF94 PUSH1 0xC0 SHL PUSH2 0x1950 JUMP JUMPDEST PUSH2 0xFDD PUSH8 0xEA7E67418196589B PUSH1 0xC0 SHL PUSH2 0x1950 JUMP JUMPDEST PUSH2 0xFF1 PUSH8 0x4A1F675CAB0D82C7 PUSH1 0xC0 SHL PUSH2 0x1950 JUMP JUMPDEST PUSH2 0x1005 PUSH8 0xF0361193CE1C6221 PUSH1 0xC0 SHL PUSH2 0x1950 JUMP JUMPDEST PUSH1 0x2 PUSH1 0x0 DUP3 DUP2 MSTORE PUSH1 0x20 ADD SWAP1 DUP2 MSTORE PUSH1 0x20 ADD PUSH1 0x0 KECCAK256 PUSH1 0x0 SWAP1 SLOAD SWAP1 PUSH2 0x100 EXP SWAP1 DIV PUSH20 0xFFFFFFFFFFFFFFFFFFFFFFFFFFFFFFFFFFFFFFFF AND PUSH20 0xFFFFFFFFFFFFFFFFFFFFFFFFFFFFFFFFFFFFFFFF AND CALLER PUSH20 0xFFFFFFFFFFFFFFFFFFFFFFFFFFFFFFFFFFFFFFFF AND EQ PUSH2 0x10A6 JUMPI PUSH1 0x40 MLOAD PUSH32 0x8C379A000000000000000000000000000000000000000000000000000000000 DUP2 MSTORE PUSH1 0x4 ADD PUSH2 0x109D SWAP1 PUSH2 0x2839 JUMP JUMPDEST PUSH1 0x40 MLOAD DUP1 SWAP2 SUB SWAP1 REVERT JUMPDEST PUSH2 0x10BA PUSH8 0xDB5D7D9415DFFF08 PUSH1 0xC0 SHL PUSH2 0x1950 JUMP JUMPDEST PUSH2 0x10CE PUSH8 0xB95008F8530FAEE5 PUSH1 0xC0 SHL PUSH2 0x1950 JUMP JUMPDEST PUSH2 0x10E2 PUSH8 0xB68995E42C42DE5D PUSH1 0xC0 SHL PUSH2 0x1950 JUMP JUMPDEST PUSH2 0x10EB DUP2 PUSH2 0x1C6F JUMP JUMPDEST POP JUMP JUMPDEST PUSH1 0x0 PUSH2 0x1104 PUSH8 0xEB39D9EC09F81940 PUSH1 0xC0 SHL PUSH2 0x1762 JUMP JUMPDEST PUSH2 0x1118 PUSH8 0xAB6F6051A5BAC846 PUSH1 0xC0 SHL PUSH2 0x1762 JUMP JUMPDEST PUSH1 0x2 PUSH1 0x0 DUP4 DUP2 MSTORE PUSH1 0x20 ADD SWAP1 DUP2 MSTORE PUSH1 0x20 ADD PUSH1 0x0 KECCAK256 PUSH1 0x0 SWAP1 SLOAD SWAP1 PUSH2 0x100 EXP SWAP1 DIV PUSH20 0xFFFFFFFFFFFFFFFFFFFFFFFFFFFFFFFFFFFFFFFF AND SWAP1 POP PUSH2 0x1162 PUSH8 0x4977A6EDB5249E6B PUSH1 0xC0 SHL PUSH2 0x1762 JUMP JUMPDEST PUSH2 0x1176 PUSH8 0xE8C942CA6E5019F1 PUSH1 0xC0 SHL PUSH2 0x1762 JUMP JUMPDEST PUSH2 0x118A PUSH8 0xD8FC023850153E0C PUSH1 0xC0 SHL PUSH2 0x1762 JUMP JUMPDEST PUSH1 0x0 PUSH20 0xFFFFFFFFFFFFFFFFFFFFFFFFFFFFFFFFFFFFFFFF AND DUP2 PUSH20 0xFFFFFFFFFFFFFFFFFFFFFFFFFFFFFFFFFFFFFFFF AND SUB PUSH2 0x11F9 JUMPI PUSH1 0x40 MLOAD PUSH32 0x8C379A000000000000000000000000000000000000000000000000000000000 DUP2 MSTORE PUSH1 0x4 ADD PUSH2 0x11F0 SWAP1 PUSH2 0x24BA JUMP JUMPDEST PUSH1 0x40 MLOAD DUP1 SWAP2 SUB SWAP1 REVERT JUMPDEST PUSH2 0x120D PUSH8 0xA5D57CA1516610A2 PUSH1 0xC0 SHL PUSH2 0x1762 JUMP JUMPDEST SWAP2 SWAP1 POP JUMP JUMPDEST PUSH1 0x0 PUSH2 0x1228 PUSH8 0x27707D9BDDF648B0 PUSH1 0xC0 SHL PUSH2 0x1762 JUMP JUMPDEST PUSH2 0x123C PUSH8 0x4D0435900D6459DA PUSH1 0xC0 SHL PUSH2 0x1762 JUMP JUMPDEST PUSH2 0x1250 PUSH8 0x96443D1D9A01586 PUSH1 0xC0 SHL PUSH2 0x1762 JUMP JUMPDEST PUSH2 0x1264 PUSH8 0x3A25B660378888C7 PUSH1 0xC0 SHL PUSH2 0x1762 JUMP JUMPDEST PUSH1 0x0 PUSH20 0xFFFFFFFFFFFFFFFFFFFFFFFFFFFFFFFFFFFFFFFF AND DUP3 PUSH20 0xFFFFFFFFFFFFFFFFFFFFFFFFFFFFFFFFFFFFFFFF AND SUB PUSH2 0x12D3 JUMPI PUSH1 0x40 MLOAD PUSH32 0x8C379A000000000000000000000000000000000000000000000000000000000 DUP2 MSTORE PUSH1 0x4 ADD PUSH2 0x12CA SWAP1 PUSH2 0x28A5 JUMP JUMPDEST PUSH1 0x40 MLOAD DUP1 SWAP2 SUB SWAP1 REVERT JUMPDEST PUSH2 0x12E7 PUSH8 0x993ECEA537870242 PUSH1 0xC0 SHL PUSH2 0x1762 JUMP JUMPDEST PUSH2 0x12FB PUSH8 0xE5B61C45E1FBE94C PUSH1 0xC0 SHL PUSH2 0x1762 JUMP JUMPDEST PUSH2 0x130F PUSH8 0x45EB6FF2414389E8 PUSH1 0xC0 SHL PUSH2 0x1762 JUMP JUMPDEST PUSH1 0x3 PUSH1 0x0 DUP4 PUSH20 0xFFFFFFFFFFFFFFFFFFFFFFFFFFFFFFFFFFFFFFFF AND PUSH20 0xFFFFFFFFFFFFFFFFFFFFFFFFFFFFFFFFFFFFFFFF AND DUP2 MSTORE PUSH1 0x20 ADD SWAP1 DUP2 MSTORE PUSH1 0x20 ADD PUSH1 0x0 KECCAK256 SLOAD SWAP1 POP SWAP2 SWAP1 POP JUMP JUMPDEST PUSH1 0x1 DUP1 SLOAD PUSH2 0x1363 SWAP1 PUSH2 0x243D JUMP JUMPDEST DUP1 PUSH1 0x1F ADD PUSH1 0x20 DUP1 SWAP2 DIV MUL PUSH1 0x20 ADD PUSH1 0x40 MLOAD SWAP1 DUP2 ADD PUSH1 0x40 MSTORE DUP1 SWAP3 SWAP2 SWAP1 DUP2 DUP2 MSTORE PUSH1 0x20 ADD DUP3 DUP1 SLOAD PUSH2 0x138F SWAP1 PUSH2 0x243D JUMP JUMPDEST DUP1 ISZERO PUSH2 0x13DC JUMPI DUP1 PUSH1 0x1F LT PUSH2 0x13B1 JUMPI PUSH2 0x100 DUP1 DUP4 SLOAD DIV MUL DUP4 MSTORE SWAP2 PUSH1 0x20 ADD SWAP2 PUSH2 0x13DC JUMP JUMPDEST DUP3 ADD SWAP2 SWAP1 PUSH1 0x0 MSTORE PUSH1 0x20 PUSH1 0x0 KECCAK256 SWAP1 JUMPDEST DUP2 SLOAD DUP2 MSTORE SWAP1 PUSH1 0x1 ADD SWAP1 PUSH1 0x20 ADD DUP1 DUP4 GT PUSH2 0x13BF JUMPI DUP3 SWAP1 SUB PUSH1 0x1F AND DUP3 ADD SWAP2 JUMPDEST POP POP POP POP POP DUP2 JUMP JUMPDEST PUSH2 0x13F8 PUSH8 0xAE5095C1E1921BF9 PUSH1 0xC0 SHL PUSH2 0x1762 JUMP JUMPDEST PUSH2 0x140C PUSH8 0xEA04EA2C2DD82532 PUSH1 0xC0 SHL PUSH2 0x1762 JUMP JUMPDEST DUP1 PUSH1 0x5 PUSH1 0x0 CALLER PUSH20 0xFFFFFFFFFFFFFFFFFFFFFFFFFFFFFFFFFFFFFFFF AND PUSH20 0xFFFFFFFFFFFFFFFFFFFFFFFFFFFFFFFFFFFFFFFF AND DUP2 MSTORE PUSH1 0x20 ADD SWAP1 DUP2 MSTORE PUSH1 0x20 ADD PUSH1 0x0 KECCAK256 PUSH1 0x0 DUP5 PUSH20 0xFFFFFFFFFFFFFFFFFFFFFFFFFFFFFFFFFFFFFFFF AND PUSH20 0xFFFFFFFFFFFFFFFFFFFFFFFFFFFFFFFFFFFFFFFF AND DUP2 MSTORE PUSH1 0x20 ADD SWAP1 DUP2 MSTORE PUSH1 0x20 ADD PUSH1 0x0 KECCAK256 PUSH1 0x0 PUSH2 0x100 EXP DUP2 SLOAD DUP2 PUSH1 0xFF MUL NOT AND SWAP1 DUP4 ISZERO ISZERO MUL OR SWAP1 SSTORE POP PUSH2 0x14B4 PUSH8 0x99D9B1821955DD63 PUSH1 0xC0 SHL PUSH2 0x1762 JUMP JUMPDEST PUSH2 0x14C8 PUSH8 0x2EA4EEB1BC7C2840 PUSH1 0xC0 SHL PUSH2 0x1762 JUMP JUMPDEST DUP2 PUSH20 0xFFFFFFFFFFFFFFFFFFFFFFFFFFFFFFFFFFFFFFFF AND CALLER PUSH20 0xFFFFFFFFFFFFFFFFFFFFFFFFFFFFFFFFFFFFFFFF AND PUSH32 0x17307EAB39AB6107E8899845AD3D59BD9653F200F220920489CA2B5937696C31 DUP4 PUSH1 0x40 MLOAD PUSH2 0x1525 SWAP2 SWAP1 PUSH2 0x1FD3 JUMP JUMPDEST PUSH1 0x40 MLOAD DUP1 SWAP2 SUB SWAP1 LOG3 POP POP JUMP JUMPDEST PUSH2 0x1545 PUSH8 0xC4F972F3E1DEB82C PUSH1 0xC0 SHL PUSH2 0x1762 JUMP JUMPDEST PUSH2 0x1559 PUSH8 0x1C3D01C57E27B901 PUSH1 0xC0 SHL PUSH2 0x1762 JUMP JUMPDEST PUSH2 0x156D PUSH8 0xD045C665A3E4346 PUSH1 0xC0 SHL PUSH2 0x1762 JUMP JUMPDEST PUSH2 0x1578 DUP6 DUP6 DUP6 PUSH2 0x907 JUMP JUMPDEST PUSH2 0x158C PUSH8 0x8714F7D28D4D8C6C PUSH1 0xC0 SHL PUSH2 0x1762 JUMP JUMPDEST PUSH2 0x15A0 PUSH8 0xCC1F2DBBBD6736EE PUSH1 0xC0 SHL PUSH2 0x1762 JUMP JUMPDEST PUSH2 0x15B4 PUSH8 0xB98B10832DE99600 PUSH1 0xC0 SHL PUSH2 0x1762 JUMP JUMPDEST PUSH1 0x0 DUP5 PUSH20 0xFFFFFFFFFFFFFFFFFFFFFFFFFFFFFFFFFFFFFFFF AND EXTCODESIZE EQ DUP1 ISZERO PUSH2 0x15EB JUMPI POP PUSH2 0x15EA PUSH8 0x7FC3141C789B692D PUSH1 0xC0 SHL PUSH2 0x1765 JUMP JUMPDEST JUMPDEST DUP1 PUSH2 0x16D9 JUMPI POP PUSH4 0x150B7A02 PUSH1 0xE0 SHL PUSH28 0xFFFFFFFFFFFFFFFFFFFFFFFFFFFFFFFFFFFFFFFFFFFFFFFFFFFFFFFF NOT AND DUP5 PUSH20 0xFFFFFFFFFFFFFFFFFFFFFFFFFFFFFFFFFFFFFFFF AND PUSH4 0x150B7A02 CALLER DUP9 DUP8 DUP8 DUP8 PUSH1 0x40 MLOAD DUP7 PUSH4 0xFFFFFFFF AND PUSH1 0xE0 SHL DUP2 MSTORE PUSH1 0x4 ADD PUSH2 0x1659 SWAP6 SWAP5 SWAP4 SWAP3 SWAP2 SWAP1 PUSH2 0x2901 JUMP JUMPDEST PUSH1 0x20 PUSH1 0x40 MLOAD DUP1 DUP4 SUB DUP2 PUSH1 0x0 DUP8 GAS CALL ISZERO DUP1 ISZERO PUSH2 0x1678 JUMPI RETURNDATASIZE PUSH1 0x0 DUP1 RETURNDATACOPY RETURNDATASIZE PUSH1 0x0 REVERT JUMPDEST POP POP POP POP PUSH1 0x40 MLOAD RETURNDATASIZE PUSH1 0x1F NOT PUSH1 0x1F DUP3 ADD AND DUP3 ADD DUP1 PUSH1 0x40 MSTORE POP DUP2 ADD SWAP1 PUSH2 0x169C SWAP2 SWAP1 PUSH2 0x2754 JUMP JUMPDEST PUSH28 0xFFFFFFFFFFFFFFFFFFFFFFFFFFFFFFFFFFFFFFFFFFFFFFFFFFFFFFFF NOT AND EQ DUP1 ISZERO PUSH2 0x16D8 JUMPI POP PUSH2 0x16D7 PUSH8 0xE11CB0E4BD0BF69C PUSH1 0xC0 SHL PUSH2 0x1765 JUMP JUMPDEST JUMPDEST JUMPDEST PUSH2 0x1718 JUMPI PUSH1 0x40 MLOAD PUSH32 0x8C379A000000000000000000000000000000000000000000000000000000000 DUP2 MSTORE PUSH1 0x4 ADD PUSH2 0x170F SWAP1 PUSH2 0x27CD JUMP JUMPDEST PUSH1 0x40 MLOAD DUP1 SWAP2 SUB SWAP1 REVERT JUMPDEST PUSH2 0x172C PUSH8 0x4FA7636C8A431565 PUSH1 0xC0 SHL PUSH2 0x1762 JUMP JUMPDEST POP POP POP POP POP JUMP JUMPDEST PUSH1 0x5 PUSH1 0x20 MSTORE DUP2 PUSH1 0x0 MSTORE PUSH1 0x40 PUSH1 0x0 KECCAK256 PUSH1 0x20 MSTORE DUP1 PUSH1 0x0 MSTORE PUSH1 0x40 PUSH1 0x0 KECCAK256 PUSH1 0x0 SWAP2 POP SWAP2 POP SWAP1 SLOAD SWAP1 PUSH2 0x100 EXP SWAP1 DIV PUSH1 0xFF AND DUP2 JUMP JUMPDEST POP JUMP JUMPDEST PUSH1 0x0 PUSH1 0x1 SWAP1 POP SWAP2 SWAP1 POP JUMP JUMPDEST PUSH1 0x0 PUSH2 0x1786 PUSH8 0x80D2CA321D694141 PUSH1 0xC0 SHL PUSH2 0x1762 JUMP JUMPDEST PUSH2 0x179A PUSH8 0x5C5B278FB42F3EAF PUSH1 0xC0 SHL PUSH2 0x1762 JUMP JUMPDEST PUSH2 0x17AE PUSH8 0x83533C78CD80ED19 PUSH1 0xC0 SHL PUSH2 0x1762 JUMP JUMPDEST DUP4 PUSH20 0xFFFFFFFFFFFFFFFFFFFFFFFFFFFFFFFFFFFFFFFF AND DUP4 PUSH20 0xFFFFFFFFFFFFFFFFFFFFFFFFFFFFFFFFFFFFFFFF AND EQ DUP1 ISZERO PUSH2 0x17F9 JUMPI POP PUSH2 0x17F8 PUSH8 0x48A3417B76841DD7 PUSH1 0xC0 SHL PUSH2 0x1765 JUMP JUMPDEST JUMPDEST DUP1 PUSH2 0x18C2 JUMPI POP PUSH1 0x5 PUSH1 0x0 DUP6 PUSH20 0xFFFFFFFFFFFFFFFFFFFFFFFFFFFFFFFFFFFFFFFF AND PUSH20 0xFFFFFFFFFFFFFFFFFFFFFFFFFFFFFFFFFFFFFFFF AND DUP2 MSTORE PUSH1 0x20 ADD SWAP1 DUP2 MSTORE PUSH1 0x20 ADD PUSH1 0x0 KECCAK256 PUSH1 0x0 DUP5 PUSH20 0xFFFFFFFFFFFFFFFFFFFFFFFFFFFFFFFFFFFFFFFF AND PUSH20 0xFFFFFFFFFFFFFFFFFFFFFFFFFFFFFFFFFFFFFFFF AND DUP2 MSTORE PUSH1 0x20 ADD SWAP1 DUP2 MSTORE PUSH1 0x20 ADD PUSH1 0x0 KECCAK256 PUSH1 0x0 SWAP1 SLOAD SWAP1 PUSH2 0x100 EXP SWAP1 DIV PUSH1 0xFF AND DUP1 ISZERO PUSH2 0x18A5 JUMPI POP PUSH2 0x18A4 PUSH8 0x537FBAD961C44F64 PUSH1 0xC0 SHL PUSH2 0x1765 JUMP JUMPDEST JUMPDEST DUP1 ISZERO PUSH2 0x18C1 JUMPI POP PUSH2 0x18C0 PUSH8 0x10D8463B4EE794FB PUSH1 0xC0 SHL PUSH2 0x1765 JUMP JUMPDEST JUMPDEST JUMPDEST DUP1 PUSH2 0x1947 JUMPI POP PUSH1 0x4 PUSH1 0x0 DUP4 DUP2 MSTORE PUSH1 0x20 ADD SWAP1 DUP2 MSTORE PUSH1 0x20 ADD PUSH1 0x0 KECCAK256 PUSH1 0x0 SWAP1 SLOAD SWAP1 PUSH2 0x100 EXP SWAP1 DIV PUSH20 0xFFFFFFFFFFFFFFFFFFFFFFFFFFFFFFFFFFFFFFFF AND PUSH20 0xFFFFFFFFFFFFFFFFFFFFFFFFFFFFFFFFFFFFFFFF AND DUP4 PUSH20 0xFFFFFFFFFFFFFFFFFFFFFFFFFFFFFFFFFFFFFFFF AND EQ DUP1 ISZERO PUSH2 0x1946 JUMPI POP PUSH2 0x1945 PUSH8 0xB01890A79146783B PUSH1 0xC0 SHL PUSH2 0x1765 JUMP JUMPDEST JUMPDEST JUMPDEST SWAP1 POP SWAP4 SWAP3 POP POP POP JUMP JUMPDEST POP JUMP JUMPDEST PUSH2 0x1967 PUSH8 0xBB9AA87A6D332CAB PUSH1 0xC0 SHL PUSH2 0x1762 JUMP JUMPDEST PUSH2 0x197B PUSH8 0xF0D8DB1220C172CB PUSH1 0xC0 SHL PUSH2 0x1762 JUMP JUMPDEST PUSH2 0x198F PUSH8 0x12F714CEBCA2AEC9 PUSH1 0xC0 SHL PUSH2 0x1762 JUMP JUMPDEST PUSH2 0x19A3 PUSH8 0x617886D65612AF04 PUSH1 0xC0 SHL PUSH2 0x1762 JUMP JUMPDEST PUSH1 0x0 PUSH20 0xFFFFFFFFFFFFFFFFFFFFFFFFFFFFFFFFFFFFFFFF AND DUP3 PUSH20 0xFFFFFFFFFFFFFFFFFFFFFFFFFFFFFFFFFFFFFFFF AND SUB PUSH2 0x1A12 JUMPI PUSH1 0x40 MLOAD PUSH32 0x8C379A000000000000000000000000000000000000000000000000000000000 DUP2 MSTORE PUSH1 0x4 ADD PUSH2 0x1A09 SWAP1 PUSH2 0x299B JUMP JUMPDEST PUSH1 0x40 MLOAD DUP1 SWAP2 SUB SWAP1 REVERT JUMPDEST PUSH2 0x1A26 PUSH8 0x6CDD6A559B15D045 PUSH1 0xC0 SHL PUSH2 0x1762 JUMP JUMPDEST PUSH2 0x1A3A PUSH8 0xD514418EF0E29D1F PUSH1 0xC0 SHL PUSH2 0x1762 JUMP JUMPDEST PUSH2 0x1A4E PUSH8 0xE6299BEAC2657D7B PUSH1 0xC0 SHL PUSH2 0x1762 JUMP JUMPDEST PUSH2 0x1A62 PUSH8 0x3B4D99B5BD8E8D98 PUSH1 0xC0 SHL PUSH2 0x1762 JUMP JUMPDEST PUSH1 0x0 PUSH20 0xFFFFFFFFFFFFFFFFFFFFFFFFFFFFFFFFFFFFFFFF AND PUSH1 0x2 PUSH1 0x0 DUP4 DUP2 MSTORE PUSH1 0x20 ADD SWAP1 DUP2 MSTORE PUSH1 0x20 ADD PUSH1 0x0 KECCAK256 PUSH1 0x0 SWAP1 SLOAD SWAP1 PUSH2 0x100 EXP SWAP1 DIV PUSH20 0xFFFFFFFFFFFFFFFFFFFFFFFFFFFFFFFFFFFFFFFF AND PUSH20 0xFFFFFFFFFFFFFFFFFFFFFFFFFFFFFFFFFFFFFFFF AND EQ PUSH2 0x1B04 JUMPI PUSH1 0x40 MLOAD PUSH32 0x8C379A000000000000000000000000000000000000000000000000000000000 DUP2 MSTORE PUSH1 0x4 ADD PUSH2 0x1AFB SWAP1 PUSH2 0x2A07 JUMP JUMPDEST PUSH1 0x40 MLOAD DUP1 SWAP2 SUB SWAP1 REVERT JUMPDEST PUSH2 0x1B18 PUSH8 0x9400171E74B59043 PUSH1 0xC0 SHL PUSH2 0x1762 JUMP JUMPDEST PUSH2 0x1B2C PUSH8 0x4B53363AA763C810 PUSH1 0xC0 SHL PUSH2 0x1762 JUMP JUMPDEST PUSH1 0x3 PUSH1 0x0 DUP4 PUSH20 0xFFFFFFFFFFFFFFFFFFFFFFFFFFFFFFFFFFFFFFFF AND PUSH20 0xFFFFFFFFFFFFFFFFFFFFFFFFFFFFFFFFFFFFFFFF AND DUP2 MSTORE PUSH1 0x20 ADD SWAP1 DUP2 MSTORE PUSH1 0x20 ADD PUSH1 0x0 KECCAK256 PUSH1 0x0 DUP2 SLOAD DUP1 SWAP3 SWAP2 SWAP1 PUSH2 0x1B7C SWAP1 PUSH2 0x2676 JUMP JUMPDEST SWAP2 SWAP1 POP SSTORE POP PUSH2 0x1B95 PUSH8 0xB42F8CEEB9D5F941 PUSH1 0xC0 SHL PUSH2 0x1762 JUMP JUMPDEST DUP2 PUSH1 0x2 PUSH1 0x0 DUP4 DUP2 MSTORE PUSH1 0x20 ADD SWAP1 DUP2 MSTORE PUSH1 0x20 ADD PUSH1 0x0 KECCAK256 PUSH1 0x0 PUSH2 0x100 EXP DUP2 SLOAD DUP2 PUSH20 0xFFFFFFFFFFFFFFFFFFFFFFFFFFFFFFFFFFFFFFFF MUL NOT AND SWAP1 DUP4 PUSH20 0xFFFFFFFFFFFFFFFFFFFFFFFFFFFFFFFFFFFFFFFF AND MUL OR SWAP1 SSTORE POP PUSH2 0x1BFB PUSH8 0x9E1D27973D1101D1 PUSH1 0xC0 SHL PUSH2 0x1762 JUMP JUMPDEST PUSH2 0x1C0F PUSH8 0xD86B036C6ABC375C PUSH1 0xC0 SHL PUSH2 0x1762 JUMP JUMPDEST DUP1 DUP3 PUSH20 0xFFFFFFFFFFFFFFFFFFFFFFFFFFFFFFFFFFFFFFFF AND PUSH1 0x0 PUSH20 0xFFFFFFFFFFFFFFFFFFFFFFFFFFFFFFFFFFFFFFFF AND PUSH32 0xDDF252AD1BE2C89B69C2B068FC378DAA952BA7F163C4A11628F55A4DF523B3EF PUSH1 0x40 MLOAD PUSH1 0x40 MLOAD DUP1 SWAP2 SUB SWAP1 LOG4 POP POP JUMP JUMPDEST PUSH2 0x1C83 PUSH8 0x57116A0B9A530D6E PUSH1 0xC0 SHL PUSH2 0x1762 JUMP JUMPDEST PUSH2 0x1C97 PUSH8 0x4479499BE8174104 PUSH1 0xC0 SHL PUSH2 0x1762 JUMP JUMPDEST PUSH2 0x1CAB PUSH8 0xA755E4DC9176311A PUSH1 0xC0 SHL PUSH2 0x1762 JUMP JUMPDEST PUSH1 0x0 PUSH1 0x2 PUSH1 0x0 DUP4 DUP2 MSTORE PUSH1 0x20 ADD SWAP1 DUP2 MSTORE PUSH1 0x20 ADD PUSH1 0x0 KECCAK256 PUSH1 0x0 SWAP1 SLOAD SWAP1 PUSH2 0x100 EXP SWAP1 DIV PUSH20 0xFFFFFFFFFFFFFFFFFFFFFFFFFFFFFFFFFFFFFFFF AND SWAP1 POP PUSH2 0x1CF7 PUSH8 0xAB9B1C2A301BB614 PUSH1 0xC0 SHL PUSH2 0x1762 JUMP JUMPDEST PUSH2 0x1D0B PUSH8 0x9BA8818596A047B8 PUSH1 0xC0 SHL PUSH2 0x1762 JUMP JUMPDEST PUSH2 0x1D1F PUSH8 0x8F5E22E895D9DC0E PUSH1 0xC0 SHL PUSH2 0x1762 JUMP JUMPDEST PUSH1 0x0 PUSH20 0xFFFFFFFFFFFFFFFFFFFFFFFFFFFFFFFFFFFFFFFF AND DUP2 PUSH20 0xFFFFFFFFFFFFFFFFFFFFFFFFFFFFFFFFFFFFFFFF AND SUB PUSH2 0x1D8E JUMPI PUSH1 0x40 MLOAD PUSH32 0x8C379A000000000000000000000000000000000000000000000000000000000 DUP2 MSTORE PUSH1 0x4 ADD PUSH2 0x1D85 SWAP1 PUSH2 0x2A73 JUMP JUMPDEST PUSH1 0x40 MLOAD DUP1 SWAP2 SUB SWAP1 REVERT JUMPDEST PUSH2 0x1DA2 PUSH8 0x2C38E77DEDD25C3C PUSH1 0xC0 SHL PUSH2 0x1762 JUMP JUMPDEST PUSH2 0x1DB6 PUSH8 0x28DD1CF66770819E PUSH1 0xC0 SHL PUSH2 0x1762 JUMP JUMPDEST PUSH1 0x1 PUSH1 0x3 PUSH1 0x0 DUP4 PUSH20 0xFFFFFFFFFFFFFFFFFFFFFFFFFFFFFFFFFFFFFFFF AND PUSH20 0xFFFFFFFFFFFFFFFFFFFFFFFFFFFFFFFFFFFFFFFF AND DUP2 MSTORE PUSH1 0x20 ADD SWAP1 DUP2 MSTORE PUSH1 0x20 ADD PUSH1 0x0 KECCAK256 PUSH1 0x0 DUP3 DUP3 SLOAD PUSH2 0x1E06 SWAP2 SWAP1 PUSH2 0x2A93 JUMP JUMPDEST SWAP3 POP POP DUP2 SWAP1 SSTORE POP PUSH2 0x1E21 PUSH8 0x782E66EED3DFF15D PUSH1 0xC0 SHL PUSH2 0x1762 JUMP JUMPDEST PUSH1 0x2 PUSH1 0x0 DUP4 DUP2 MSTORE PUSH1 0x20 ADD SWAP1 DUP2 MSTORE PUSH1 0x20 ADD PUSH1 0x0 KECCAK256 PUSH1 0x0 PUSH2 0x100 EXP DUP2 SLOAD SWAP1 PUSH20 0xFFFFFFFFFFFFFFFFFFFFFFFFFFFFFFFFFFFFFFFF MUL NOT AND SWAP1 SSTORE PUSH2 0x1E6B PUSH8 0xB93B4990233EEB9C PUSH1 0xC0 SHL PUSH2 0x1762 JUMP JUMPDEST PUSH1 0x4 PUSH1 0x0 DUP4 DUP2 MSTORE PUSH1 0x20 ADD SWAP1 DUP2 MSTORE PUSH1 0x20 ADD PUSH1 0x0 KECCAK256 PUSH1 0x0 PUSH2 0x100 EXP DUP2 SLOAD SWAP1 PUSH20 0xFFFFFFFFFFFFFFFFFFFFFFFFFFFFFFFFFFFFFFFF MUL NOT AND SWAP1 SSTORE PUSH2 0x1EB5 PUSH8 0x391385E42AADD8FE PUSH1 0xC0 SHL PUSH2 0x1762 JUMP JUMPDEST PUSH2 0x1EC9 PUSH8 0x8C5F18FEB4BDFC60 PUSH1 0xC0 SHL PUSH2 0x1762 JUMP JUMPDEST DUP2 PUSH1 0x0 PUSH20 0xFFFFFFFFFFFFFFFFFFFFFFFFFFFFFFFFFFFFFFFF AND DUP3 PUSH20 0xFFFFFFFFFFFFFFFFFFFFFFFFFFFFFFFFFFFFFFFF AND PUSH32 0xDDF252AD1BE2C89B69C2B068FC378DAA952BA7F163C4A11628F55A4DF523B3EF PUSH1 0x40 MLOAD PUSH1 0x40 MLOAD DUP1 SWAP2 SUB SWAP1 LOG4 POP POP JUMP JUMPDEST PUSH1 0x0 DUP1 REVERT JUMPDEST PUSH1 0x0 DUP1 REVERT JUMPDEST PUSH1 0x0 PUSH32 0xFFFFFFFF00000000000000000000000000000000000000000000000000000000 DUP3 AND SWAP1 POP SWAP2 SWAP1 POP JUMP JUMPDEST PUSH2 0x1F68 DUP2 PUSH2 0x1F33 JUMP JUMPDEST DUP2 EQ PUSH2 0x1F73 JUMPI PUSH1 0x0 DUP1 REVERT JUMPDEST POP JUMP JUMPDEST PUSH1 0x0 DUP2 CALLDATALOAD SWAP1 POP PUSH2 0x1F85 DUP2 PUSH2 0x1F5F JUMP JUMPDEST SWAP3 SWAP2 POP POP JUMP JUMPDEST PUSH1 0x0 PUSH1 0x20 DUP3 DUP5 SUB SLT ISZERO PUSH2 0x1FA1 JUMPI PUSH2 0x1FA0 PUSH2 0x1F29 JUMP JUMPDEST JUMPDEST PUSH1 0x0 PUSH2 0x1FAF DUP5 DUP3 DUP6 ADD PUSH2 0x1F76 JUMP JUMPDEST SWAP2 POP POP SWAP3 SWAP2 POP POP JUMP JUMPDEST PUSH1 0x0 DUP2 ISZERO ISZERO SWAP1 POP SWAP2 SWAP1 POP JUMP JUMPDEST PUSH2 0x1FCD DUP2 PUSH2 0x1FB8 JUMP JUMPDEST DUP3 MSTORE POP POP JUMP JUMPDEST PUSH1 0x0 PUSH1 0x20 DUP3 ADD SWAP1 POP PUSH2 0x1FE8 PUSH1 0x0 DUP4 ADD DUP5 PUSH2 0x1FC4 JUMP JUMPDEST SWAP3 SWAP2 POP POP JUMP JUMPDEST PUSH1 0x0 DUP2 MLOAD SWAP1 POP SWAP2 SWAP1 POP JUMP JUMPDEST PUSH1 0x0 DUP3 DUP3 MSTORE PUSH1 0x20 DUP3 ADD SWAP1 POP SWAP3 SWAP2 POP POP JUMP JUMPDEST PUSH1 0x0 JUMPDEST DUP4 DUP2 LT ISZERO PUSH2 0x2028 JUMPI DUP1 DUP3 ADD MLOAD DUP2 DUP5 ADD MSTORE PUSH1 0x20 DUP2 ADD SWAP1 POP PUSH2 0x200D JUMP JUMPDEST PUSH1 0x0 DUP5 DUP5 ADD MSTORE POP POP POP POP JUMP JUMPDEST PUSH1 0x0 PUSH1 0x1F NOT PUSH1 0x1F DUP4 ADD AND SWAP1 POP SWAP2 SWAP1 POP JUMP JUMPDEST PUSH1 0x0 PUSH2 0x2050 DUP3 PUSH2 0x1FEE JUMP JUMPDEST PUSH2 0x205A DUP2 DUP6 PUSH2 0x1FF9 JUMP JUMPDEST SWAP4 POP PUSH2 0x206A DUP2 DUP6 PUSH1 0x20 DUP7 ADD PUSH2 0x200A JUMP JUMPDEST PUSH2 0x2073 DUP2 PUSH2 0x2034 JUMP JUMPDEST DUP5 ADD SWAP2 POP POP SWAP3 SWAP2 POP POP JUMP JUMPDEST PUSH1 0x0 PUSH1 0x20 DUP3 ADD SWAP1 POP DUP2 DUP2 SUB PUSH1 0x0 DUP4 ADD MSTORE PUSH2 0x2098 DUP2 DUP5 PUSH2 0x2045 JUMP JUMPDEST SWAP1 POP SWAP3 SWAP2 POP POP JUMP JUMPDEST PUSH1 0x0 DUP2 SWAP1 POP SWAP2 SWAP1 POP JUMP JUMPDEST PUSH2 0x20B3 DUP2 PUSH2 0x20A0 JUMP JUMPDEST DUP2 EQ PUSH2 0x20BE JUMPI PUSH1 0x0 DUP1 REVERT JUMPDEST POP JUMP JUMPDEST PUSH1 0x0 DUP2 CALLDATALOAD SWAP1 POP PUSH2 0x20D0 DUP2 PUSH2 0x20AA JUMP JUMPDEST SWAP3 SWAP2 POP POP JUMP JUMPDEST PUSH1 0x0 PUSH1 0x20 DUP3 DUP5 SUB SLT ISZERO PUSH2 0x20EC JUMPI PUSH2 0x20EB PUSH2 0x1F29 JUMP JUMPDEST JUMPDEST PUSH1 0x0 PUSH2 0x20FA DUP5 DUP3 DUP6 ADD PUSH2 0x20C1 JUMP JUMPDEST SWAP2 POP POP SWAP3 SWAP2 POP POP JUMP JUMPDEST PUSH1 0x0 PUSH20 0xFFFFFFFFFFFFFFFFFFFFFFFFFFFFFFFFFFFFFFFF DUP3 AND SWAP1 POP SWAP2 SWAP1 POP JUMP JUMPDEST PUSH1 0x0 PUSH2 0x212E DUP3 PUSH2 0x2103 JUMP JUMPDEST SWAP1 POP SWAP2 SWAP1 POP JUMP JUMPDEST PUSH2 0x213E DUP2 PUSH2 0x2123 JUMP JUMPDEST DUP3 MSTORE POP POP JUMP JUMPDEST PUSH1 0x0 PUSH1 0x20 DUP3 ADD SWAP1 POP PUSH2 0x2159 PUSH1 0x0 DUP4 ADD DUP5 PUSH2 0x2135 JUMP JUMPDEST SWAP3 SWAP2 POP POP JUMP JUMPDEST PUSH2 0x2168 DUP2 PUSH2 0x2123 JUMP JUMPDEST DUP2 EQ PUSH2 0x2173 JUMPI PUSH1 0x0 DUP1 REVERT JUMPDEST POP JUMP JUMPDEST PUSH1 0x0 DUP2 CALLDATALOAD SWAP1 POP PUSH2 0x2185 DUP2 PUSH2 0x215F JUMP JUMPDEST SWAP3 SWAP2 POP POP JUMP JUMPDEST PUSH1 0x0 DUP1 PUSH1 0x40 DUP4 DUP6 SUB SLT ISZERO PUSH2 0x21A2 JUMPI PUSH2 0x21A1 PUSH2 0x1F29 JUMP JUMPDEST JUMPDEST PUSH1 0x0 PUSH2 0x21B0 DUP6 DUP3 DUP7 ADD PUSH2 0x2176 JUMP JUMPDEST SWAP3 POP POP PUSH1 0x20 PUSH2 0x21C1 DUP6 DUP3 DUP7 ADD PUSH2 0x20C1 JUMP JUMPDEST SWAP2 POP POP SWAP3 POP SWAP3 SWAP1 POP JUMP JUMPDEST PUSH1 0x0 DUP1 PUSH1 0x0 PUSH1 0x60 DUP5 DUP7 SUB SLT ISZERO PUSH2 0x21E4 JUMPI PUSH2 0x21E3 PUSH2 0x1F29 JUMP JUMPDEST JUMPDEST PUSH1 0x0 PUSH2 0x21F2 DUP7 DUP3 DUP8 ADD PUSH2 0x2176 JUMP JUMPDEST SWAP4 POP POP PUSH1 0x20 PUSH2 0x2203 DUP7 DUP3 DUP8 ADD PUSH2 0x2176 JUMP JUMPDEST SWAP3 POP POP PUSH1 0x40 PUSH2 0x2214 DUP7 DUP3 DUP8 ADD PUSH2 0x20C1 JUMP JUMPDEST SWAP2 POP POP SWAP3 POP SWAP3 POP SWAP3 JUMP JUMPDEST PUSH1 0x0 PUSH1 0x20 DUP3 DUP5 SUB SLT ISZERO PUSH2 0x2234 JUMPI PUSH2 0x2233 PUSH2 0x1F29 JUMP JUMPDEST JUMPDEST PUSH1 0x0 PUSH2 0x2242 DUP5 DUP3 DUP6 ADD PUSH2 0x2176 JUMP JUMPDEST SWAP2 POP POP SWAP3 SWAP2 POP POP JUMP JUMPDEST PUSH2 0x2254 DUP2 PUSH2 0x20A0 JUMP JUMPDEST DUP3 MSTORE POP POP JUMP JUMPDEST PUSH1 0x0 PUSH1 0x20 DUP3 ADD SWAP1 POP PUSH2 0x226F PUSH1 0x0 DUP4 ADD DUP5 PUSH2 0x224B JUMP JUMPDEST SWAP3 SWAP2 POP POP JUMP JUMPDEST PUSH2 0x227E DUP2 PUSH2 0x1FB8 JUMP JUMPDEST DUP2 EQ PUSH2 0x2289 JUMPI PUSH1 0x0 DUP1 REVERT JUMPDEST POP JUMP JUMPDEST PUSH1 0x0 DUP2 CALLDATALOAD SWAP1 POP PUSH2 0x229B DUP2 PUSH2 0x2275 JUMP JUMPDEST SWAP3 SWAP2 POP POP JUMP JUMPDEST PUSH1 0x0 DUP1 PUSH1 0x40 DUP4 DUP6 SUB SLT ISZERO PUSH2 0x22B8 JUMPI PUSH2 0x22B7 PUSH2 0x1F29 JUMP JUMPDEST JUMPDEST PUSH1 0x0 PUSH2 0x22C6 DUP6 DUP3 DUP7 ADD PUSH2 0x2176 JUMP JUMPDEST SWAP3 POP POP PUSH1 0x20 PUSH2 0x22D7 DUP6 DUP3 DUP7 ADD PUSH2 0x228C JUMP JUMPDEST SWAP2 POP POP SWAP3 POP SWAP3 SWAP1 POP JUMP JUMPDEST PUSH1 0x0 DUP1 REVERT JUMPDEST PUSH1 0x0 DUP1 REVERT JUMPDEST PUSH1 0x0 DUP1 REVERT JUMPDEST PUSH1 0x0 DUP1 DUP4 PUSH1 0x1F DUP5 ADD SLT PUSH2 0x2306 JUMPI PUSH2 0x2305 PUSH2 0x22E1 JUMP JUMPDEST JUMPDEST DUP3 CALLDATALOAD SWAP1 POP PUSH8 0xFFFFFFFFFFFFFFFF DUP2 GT ISZERO PUSH2 0x2323 JUMPI PUSH2 0x2322 PUSH2 0x22E6 JUMP JUMPDEST JUMPDEST PUSH1 0x20 DUP4 ADD SWAP2 POP DUP4 PUSH1 0x1 DUP3 MUL DUP4 ADD GT ISZERO PUSH2 0x233F JUMPI PUSH2 0x233E PUSH2 0x22EB JUMP JUMPDEST JUMPDEST SWAP3 POP SWAP3 SWAP1 POP JUMP JUMPDEST PUSH1 0x0 DUP1 PUSH1 0x0 DUP1 PUSH1 0x0 PUSH1 0x80 DUP7 DUP9 SUB SLT ISZERO PUSH2 0x2362 JUMPI PUSH2 0x2361 PUSH2 0x1F29 JUMP JUMPDEST JUMPDEST PUSH1 0x0 PUSH2 0x2370 DUP9 DUP3 DUP10 ADD PUSH2 0x2176 JUMP JUMPDEST SWAP6 POP POP PUSH1 0x20 PUSH2 0x2381 DUP9 DUP3 DUP10 ADD PUSH2 0x2176 JUMP JUMPDEST SWAP5 POP POP PUSH1 0x40 PUSH2 0x2392 DUP9 DUP3 DUP10 ADD PUSH2 0x20C1 JUMP JUMPDEST SWAP4 POP POP PUSH1 0x60 DUP7 ADD CALLDATALOAD PUSH8 0xFFFFFFFFFFFFFFFF DUP2 GT ISZERO PUSH2 0x23B3 JUMPI PUSH2 0x23B2 PUSH2 0x1F2E JUMP JUMPDEST JUMPDEST PUSH2 0x23BF DUP9 DUP3 DUP10 ADD PUSH2 0x22F0 JUMP JUMPDEST SWAP3 POP SWAP3 POP POP SWAP3 SWAP6 POP SWAP3 SWAP6 SWAP1 SWAP4 POP JUMP JUMPDEST PUSH1 0x0 DUP1 PUSH1 0x40 DUP4 DUP6 SUB SLT ISZERO PUSH2 0x23E5 JUMPI PUSH2 0x23E4 PUSH2 0x1F29 JUMP JUMPDEST JUMPDEST PUSH1 0x0 PUSH2 0x23F3 DUP6 DUP3 DUP7 ADD PUSH2 0x2176 JUMP JUMPDEST SWAP3 POP POP PUSH1 0x20 PUSH2 0x2404 DUP6 DUP3 DUP7 ADD PUSH2 0x2176 JUMP JUMPDEST SWAP2 POP POP SWAP3 POP SWAP3 SWAP1 POP JUMP JUMPDEST PUSH32 0x4E487B7100000000000000000000000000000000000000000000000000000000 PUSH1 0x0 MSTORE PUSH1 0x22 PUSH1 0x4 MSTORE PUSH1 0x24 PUSH1 0x0 REVERT JUMPDEST PUSH1 0x0 PUSH1 0x2 DUP3 DIV SWAP1 POP PUSH1 0x1 DUP3 AND DUP1 PUSH2 0x2455 JUMPI PUSH1 0x7F DUP3 AND SWAP2 POP JUMPDEST PUSH1 0x20 DUP3 LT DUP2 SUB PUSH2 0x2468 JUMPI PUSH2 0x2467 PUSH2 0x240E JUMP JUMPDEST JUMPDEST POP SWAP2 SWAP1 POP JUMP JUMPDEST PUSH32 0x746F6B656E20646F65736E277420657869737400000000000000000000000000 PUSH1 0x0 DUP3 ADD MSTORE POP JUMP JUMPDEST PUSH1 0x0 PUSH2 0x24A4 PUSH1 0x13 DUP4 PUSH2 0x1FF9 JUMP JUMPDEST SWAP2 POP PUSH2 0x24AF DUP3 PUSH2 0x246E JUMP JUMPDEST PUSH1 0x20 DUP3 ADD SWAP1 POP SWAP2 SWAP1 POP JUMP JUMPDEST PUSH1 0x0 PUSH1 0x20 DUP3 ADD SWAP1 POP DUP2 DUP2 SUB PUSH1 0x0 DUP4 ADD MSTORE PUSH2 0x24D3 DUP2 PUSH2 0x2497 JUMP JUMPDEST SWAP1 POP SWAP2 SWAP1 POP JUMP JUMPDEST PUSH32 0x6E6F7420617574686F72697A6564000000000000000000000000000000000000 PUSH1 0x0 DUP3 ADD MSTORE POP JUMP JUMPDEST PUSH1 0x0 PUSH2 0x2510 PUSH1 0xE DUP4 PUSH2 0x1FF9 JUMP JUMPDEST SWAP2 POP PUSH2 0x251B DUP3 PUSH2 0x24DA JUMP JUMPDEST PUSH1 0x20 DUP3 ADD SWAP1 POP SWAP2 SWAP1 POP JUMP JUMPDEST PUSH1 0x0 PUSH1 0x20 DUP3 ADD SWAP1 POP DUP2 DUP2 SUB PUSH1 0x0 DUP4 ADD MSTORE PUSH2 0x253F DUP2 PUSH2 0x2503 JUMP JUMPDEST SWAP1 POP SWAP2 SWAP1 POP JUMP JUMPDEST PUSH32 0x66726F6D20213D206F776E657200000000000000000000000000000000000000 PUSH1 0x0 DUP3 ADD MSTORE POP JUMP JUMPDEST PUSH1 0x0 PUSH2 0x257C PUSH1 0xD DUP4 PUSH2 0x1FF9 JUMP JUMPDEST SWAP2 POP PUSH2 0x2587 DUP3 PUSH2 0x2546 JUMP JUMPDEST PUSH1 0x20 DUP3 ADD SWAP1 POP SWAP2 SWAP1 POP JUMP JUMPDEST PUSH1 0x0 PUSH1 0x20 DUP3 ADD SWAP1 POP DUP2 DUP2 SUB PUSH1 0x0 DUP4 ADD MSTORE PUSH2 0x25AB DUP2 PUSH2 0x256F JUMP JUMPDEST SWAP1 POP SWAP2 SWAP1 POP JUMP JUMPDEST PUSH32 0x7472616E7366657220746F207A65726F20616464726573730000000000000000 PUSH1 0x0 DUP3 ADD MSTORE POP JUMP JUMPDEST PUSH1 0x0 PUSH2 0x25E8 PUSH1 0x18 DUP4 PUSH2 0x1FF9 JUMP JUMPDEST SWAP2 POP PUSH2 0x25F3 DUP3 PUSH2 0x25B2 JUMP JUMPDEST PUSH1 0x20 DUP3 ADD SWAP1 POP SWAP2 SWAP1 POP JUMP JUMPDEST PUSH1 0x0 PUSH1 0x20 DUP3 ADD SWAP1 POP DUP2 DUP2 SUB PUSH1 0x0 DUP4 ADD MSTORE PUSH2 0x2617 DUP2 PUSH2 0x25DB JUMP JUMPDEST SWAP1 POP SWAP2 SWAP1 POP JUMP JUMPDEST PUSH32 0x4E487B7100000000000000000000000000000000000000000000000000000000 PUSH1 0x0 MSTORE PUSH1 0x11 PUSH1 0x4 MSTORE PUSH1 0x24 PUSH1 0x0 REVERT JUMPDEST PUSH1 0x0 PUSH2 0x2658 DUP3 PUSH2 0x20A0 JUMP JUMPDEST SWAP2 POP PUSH1 0x0 DUP3 SUB PUSH2 0x266B JUMPI PUSH2 0x266A PUSH2 0x261E JUMP JUMPDEST JUMPDEST PUSH1 0x1 DUP3 SUB SWAP1 POP SWAP2 SWAP1 POP JUMP JUMPDEST PUSH1 0x0 PUSH2 0x2681 DUP3 PUSH2 0x20A0 JUMP JUMPDEST SWAP2 POP PUSH32 0xFFFFFFFFFFFFFFFFFFFFFFFFFFFFFFFFFFFFFFFFFFFFFFFFFFFFFFFFFFFFFFFF DUP3 SUB PUSH2 0x26B3 JUMPI PUSH2 0x26B2 PUSH2 0x261E JUMP JUMPDEST JUMPDEST PUSH1 0x1 DUP3 ADD SWAP1 POP SWAP2 SWAP1 POP JUMP JUMPDEST PUSH1 0x0 DUP3 DUP3 MSTORE PUSH1 0x20 DUP3 ADD SWAP1 POP SWAP3 SWAP2 POP POP JUMP JUMPDEST POP JUMP JUMPDEST PUSH1 0x0 PUSH2 0x26DF PUSH1 0x0 DUP4 PUSH2 0x26BE JUMP JUMPDEST SWAP2 POP PUSH2 0x26EA DUP3 PUSH2 0x26CF JUMP JUMPDEST PUSH1 0x0 DUP3 ADD SWAP1 POP SWAP2 SWAP1 POP JUMP JUMPDEST PUSH1 0x0 PUSH1 0x80 DUP3 ADD SWAP1 POP PUSH2 0x270A PUSH1 0x0 DUP4 ADD DUP7 PUSH2 0x2135 JUMP JUMPDEST PUSH2 0x2717 PUSH1 0x20 DUP4 ADD DUP6 PUSH2 0x2135 JUMP JUMPDEST PUSH2 0x2724 PUSH1 0x40 DUP4 ADD DUP5 PUSH2 0x224B JUMP JUMPDEST DUP2 DUP2 SUB PUSH1 0x60 DUP4 ADD MSTORE PUSH2 0x2735 DUP2 PUSH2 0x26D2 JUMP JUMPDEST SWAP1 POP SWAP5 SWAP4 POP POP POP POP JUMP JUMPDEST PUSH1 0x0 DUP2 MLOAD SWAP1 POP PUSH2 0x274E DUP2 PUSH2 0x1F5F JUMP JUMPDEST SWAP3 SWAP2 POP POP JUMP JUMPDEST PUSH1 0x0 PUSH1 0x20 DUP3 DUP5 SUB SLT ISZERO PUSH2 0x276A JUMPI PUSH2 0x2769 PUSH2 0x1F29 JUMP JUMPDEST JUMPDEST PUSH1 0x0 PUSH2 0x2778 DUP5 DUP3 DUP6 ADD PUSH2 0x273F JUMP JUMPDEST SWAP2 POP POP SWAP3 SWAP2 POP POP JUMP JUMPDEST PUSH32 0x756E7361666520726563697069656E7400000000000000000000000000000000 PUSH1 0x0 DUP3 ADD MSTORE POP JUMP JUMPDEST PUSH1 0x0 PUSH2 0x27B7 PUSH1 0x10 DUP4 PUSH2 0x1FF9 JUMP JUMPDEST SWAP2 POP PUSH2 0x27C2 DUP3 PUSH2 0x2781 JUMP JUMPDEST PUSH1 0x20 DUP3 ADD SWAP1 POP SWAP2 SWAP1 POP JUMP JUMPDEST PUSH1 0x0 PUSH1 0x20 DUP3 ADD SWAP1 POP DUP2 DUP2 SUB PUSH1 0x0 DUP4 ADD MSTORE PUSH2 0x27E6 DUP2 PUSH2 0x27AA JUMP JUMPDEST SWAP1 POP SWAP2 SWAP1 POP JUMP JUMPDEST PUSH32 0x6E6F74206F776E65720000000000000000000000000000000000000000000000 PUSH1 0x0 DUP3 ADD MSTORE POP JUMP JUMPDEST PUSH1 0x0 PUSH2 0x2823 PUSH1 0x9 DUP4 PUSH2 0x1FF9 JUMP JUMPDEST SWAP2 POP PUSH2 0x282E DUP3 PUSH2 0x27ED JUMP JUMPDEST PUSH1 0x20 DUP3 ADD SWAP1 POP SWAP2 SWAP1 POP JUMP JUMPDEST PUSH1 0x0 PUSH1 0x20 DUP3 ADD SWAP1 POP DUP2 DUP2 SUB PUSH1 0x0 DUP4 ADD MSTORE PUSH2 0x2852 DUP2 PUSH2 0x2816 JUMP JUMPDEST SWAP1 POP SWAP2 SWAP1 POP JUMP JUMPDEST PUSH32 0x6F776E6572203D207A65726F2061646472657373000000000000000000000000 PUSH1 0x0 DUP3 ADD MSTORE POP JUMP JUMPDEST PUSH1 0x0 PUSH2 0x288F PUSH1 0x14 DUP4 PUSH2 0x1FF9 JUMP JUMPDEST SWAP2 POP PUSH2 0x289A DUP3 PUSH2 0x2859 JUMP JUMPDEST PUSH1 0x20 DUP3 ADD SWAP1 POP SWAP2 SWAP1 POP JUMP JUMPDEST PUSH1 0x0 PUSH1 0x20 DUP3 ADD SWAP1 POP DUP2 DUP2 SUB PUSH1 0x0 DUP4 ADD MSTORE PUSH2 0x28BE DUP2 PUSH2 0x2882 JUMP JUMPDEST SWAP1 POP SWAP2 SWAP1 POP JUMP JUMPDEST DUP3 DUP2 DUP4 CALLDATACOPY PUSH1 0x0 DUP4 DUP4 ADD MSTORE POP POP POP JUMP JUMPDEST PUSH1 0x0 PUSH2 0x28E0 DUP4 DUP6 PUSH2 0x26BE JUMP JUMPDEST SWAP4 POP PUSH2 0x28ED DUP4 DUP6 DUP5 PUSH2 0x28C5 JUMP JUMPDEST PUSH2 0x28F6 DUP4 PUSH2 0x2034 JUMP JUMPDEST DUP5 ADD SWAP1 POP SWAP4 SWAP3 POP POP POP JUMP JUMPDEST PUSH1 0x0 PUSH1 0x80 DUP3 ADD SWAP1 POP PUSH2 0x2916 PUSH1 0x0 DUP4 ADD DUP9 PUSH2 0x2135 JUMP JUMPDEST PUSH2 0x2923 PUSH1 0x20 DUP4 ADD DUP8 PUSH2 0x2135 JUMP JUMPDEST PUSH2 0x2930 PUSH1 0x40 DUP4 ADD DUP7 PUSH2 0x224B JUMP JUMPDEST DUP2 DUP2 SUB PUSH1 0x60 DUP4 ADD MSTORE PUSH2 0x2943 DUP2 DUP5 DUP7 PUSH2 0x28D4 JUMP JUMPDEST SWAP1 POP SWAP7 SWAP6 POP POP POP POP POP POP JUMP JUMPDEST PUSH32 0x6D696E7420746F207A65726F2061646472657373000000000000000000000000 PUSH1 0x0 DUP3 ADD MSTORE POP JUMP JUMPDEST PUSH1 0x0 PUSH2 0x2985 PUSH1 0x14 DUP4 PUSH2 0x1FF9 JUMP JUMPDEST SWAP2 POP PUSH2 0x2990 DUP3 PUSH2 0x294F JUMP JUMPDEST PUSH1 0x20 DUP3 ADD SWAP1 POP SWAP2 SWAP1 POP JUMP JUMPDEST PUSH1 0x0 PUSH1 0x20 DUP3 ADD SWAP1 POP DUP2 DUP2 SUB PUSH1 0x0 DUP4 ADD MSTORE PUSH2 0x29B4 DUP2 PUSH2 0x2978 JUMP JUMPDEST SWAP1 POP SWAP2 SWAP1 POP JUMP JUMPDEST PUSH32 0x616C7265616479206D696E746564000000000000000000000000000000000000 PUSH1 0x0 DUP3 ADD MSTORE POP JUMP JUMPDEST PUSH1 0x0 PUSH2 0x29F1 PUSH1 0xE DUP4 PUSH2 0x1FF9 JUMP JUMPDEST SWAP2 POP PUSH2 0x29FC DUP3 PUSH2 0x29BB JUMP JUMPDEST PUSH1 0x20 DUP3 ADD SWAP1 POP SWAP2 SWAP1 POP JUMP JUMPDEST PUSH1 0x0 PUSH1 0x20 DUP3 ADD SWAP1 POP DUP2 DUP2 SUB PUSH1 0x0 DUP4 ADD MSTORE PUSH2 0x2A20 DUP2 PUSH2 0x29E4 JUMP JUMPDEST SWAP1 POP SWAP2 SWAP1 POP JUMP JUMPDEST PUSH32 0x6E6F74206D696E74656400000000000000000000000000000000000000000000 PUSH1 0x0 DUP3 ADD MSTORE POP JUMP JUMPDEST PUSH1 0x0 PUSH2 0x2A5D PUSH1 0xA DUP4 PUSH2 0x1FF9 JUMP JUMPDEST SWAP2 POP PUSH2 0x2A68 DUP3 PUSH2 0x2A27 JUMP JUMPDEST PUSH1 0x20 DUP3 ADD SWAP1 POP SWAP2 SWAP1 POP JUMP JUMPDEST PUSH1 0x0 PUSH1 0x20 DUP3 ADD SWAP1 POP DUP2 DUP2 SUB PUSH1 0x0 DUP4 ADD MSTORE PUSH2 0x2A8C DUP2 PUSH2 0x2A50 JUMP JUMPDEST SWAP1 POP SWAP2 SWAP1 POP JUMP JUMPDEST PUSH1 0x0 PUSH2 0x2A9E DUP3 PUSH2 0x20A0 JUMP JUMPDEST SWAP2 POP PUSH2 0x2AA9 DUP4 PUSH2 0x20A0 JUMP JUMPDEST SWAP3 POP DUP3 DUP3 SUB SWAP1 POP DUP2 DUP2 GT ISZERO PUSH2 0x2AC1 JUMPI PUSH2 0x2AC0 PUSH2 0x261E JUMP JUMPDEST JUMPDEST SWAP3 SWAP2 POP POP JUMP INVALID LOG2 PUSH5 0x6970667358 0x22 SLT KECCAK256 PUSH15 0xFE61D52827CFD5CB9290B4C0E65003 PUSH15 0xD320B36C8388B636FBFEC7D4FEB665 PUSH5 0x736F6C6343 STOP ADDMOD GT STOP CALLER "},"methodIdentifiers":{"approve(address,uint256)":"095ea7b3","balanceOf(address)":"70a08231","burn(uint256)":"42966c68","getApproved(uint256)":"081812fc","isApprovedForAll(address,address)":"e985e9c5","mint(address,uint256)":"40c10f19","name()":"06fdde03","ownerOf(uint256)":"6352211e","safeTransferFrom(address,address,uint256)":"42842e0e","safeTransferFrom(address,address,uint256,bytes)":"b88d4fde","setApprovalForAll(address,bool)":"a22cb465","supportsInterface(bytes4)":"01ffc9a7","symbol()":"95d89b41","transferFrom(address,address,uint256)":"23b872dd"}}}}}