{
  "_format": "hh-sol-artifact-1",
  "contractName": "MyNFT",
  "sourceName": "contracts/MyNFT .sol",
  "abi": [
    {
      "anonymous": false,
      "inputs": [
        {
          "indexed": true,
          "internalType": "address",
          "name": "owner",
          "type": "address"
        },
        {
          "indexed": true,
          "internalType": "address",
          "name": "spender",
          "type": "address"
        },
        {
          "indexed": true,
          "internalType": "uint256",
          "name": "id",
          "type": "uint256"
        }
      ],
      "name": "Approval",
      "type": "event"
    },
    {
      "anonymous": false,
      "inputs": [
        {
          "indexed": true,
          "internalType": "address",
          "name": "owner",
          "type": "address"
        },
        {
          "indexed": true,
          "internalType": "address",
          "name": "operator",
          "type": "address"
        },
        {
          "indexed": false,
          "internalType": "bool",
          "name": "approved",
          "type": "bool"
        }
      ],
      "name": "ApprovalForAll",
      "type": "event"
    },
    {
      "anonymous": false,
      "inputs": [
        {
          "indexed": true,
          "internalType": "address",
          "name": "from",
          "type": "address"
        },
        {
          "indexed": true,
          "internalType": "address",
          "name": "to",
          "type": "address"
        },
        {
          "indexed": true,
          "internalType": "uint256",
          "name": "id",
          "type": "uint256"
        }
      ],
      "name": "Transfer",
      "type": "event"
    },
    {
      "inputs": [
        {
          "internalType": "address",
          "name": "spender",
          "type": "address"
        },
        {
          "internalType": "uint256",
          "name": "id",
          "type": "uint256"
        }
      ],
      "name": "approve",
      "outputs": [],
      "stateMutability": "nonpayable",
      "type": "function"
    },
    {
      "inputs": [
        {
          "internalType": "address",
          "name": "owner",
          "type": "address"
        }
      ],
      "name": "balanceOf",
      "outputs": [
        {
          "internalType": "uint256",
          "name": "",
          "type": "uint256"
        }
      ],
      "stateMutability": "view",
      "type": "function"
    },
    {
      "inputs": [
        {
          "internalType": "uint256",
          "name": "id",
          "type": "uint256"
        }
      ],
      "name": "burn",
      "outputs": [],
      "stateMutability": "nonpayable",
      "type": "function"
    },
    {
      "inputs": [
        {
          "internalType": "uint256",
          "name": "id",
          "type": "uint256"
        }
      ],
      "name": "getApproved",
      "outputs": [
        {
          "internalType": "address",
          "name": "",
          "type": "address"
        }
      ],
      "stateMutability": "view",
      "type": "function"
    },
    {
      "inputs": [
        {
          "internalType": "address",
          "name": "",
          "type": "address"
        },
        {
          "internalType": "address",
          "name": "",
          "type": "address"
        }
      ],
      "name": "isApprovedForAll",
      "outputs": [
        {
          "internalType": "bool",
          "name": "",
          "type": "bool"
        }
      ],
      "stateMutability": "view",
      "type": "function"
    },
    {
      "inputs": [
        {
          "internalType": "address",
          "name": "to",
          "type": "address"
        },
        {
          "internalType": "uint256",
          "name": "id",
          "type": "uint256"
        }
      ],
      "name": "mint",
      "outputs": [],
      "stateMutability": "nonpayable",
      "type": "function"
    },
    {
      "inputs": [],
      "name": "name",
      "outputs": [
        {
          "internalType": "string",
          "name": "",
          "type": "string"
        }
      ],
      "stateMutability": "view",
      "type": "function"
    },
    {
      "inputs": [
        {
          "internalType": "uint256",
          "name": "id",
          "type": "uint256"
        }
      ],
      "name": "ownerOf",
      "outputs": [
        {
          "internalType": "address",
          "name": "owner",
          "type": "address"
        }
      ],
      "stateMutability": "view",
      "type": "function"
    },
    {
      "inputs": [
        {
          "internalType": "address",
          "name": "from",
          "type": "address"
        },
        {
          "internalType": "address",
          "name": "to",
          "type": "address"
        },
        {
          "internalType": "uint256",
          "name": "id",
          "type": "uint256"
        }
      ],
      "name": "safeTransferFrom",
      "outputs": [],
      "stateMutability": "nonpayable",
      "type": "function"
    },
    {
      "inputs": [
        {
          "internalType": "address",
          "name": "from",
          "type": "address"
        },
        {
          "internalType": "address",
          "name": "to",
          "type": "address"
        },
        {
          "internalType": "uint256",
          "name": "id",
          "type": "uint256"
        },
        {
          "internalType": "bytes",
          "name": "data",
          "type": "bytes"
        }
      ],
      "name": "safeTransferFrom",
      "outputs": [],
      "stateMutability": "nonpayable",
      "type": "function"
    },
    {
      "inputs": [
        {
          "internalType": "address",
          "name": "operator",
          "type": "address"
        },
        {
          "internalType": "bool",
          "name": "approved",
          "type": "bool"
        }
      ],
      "name": "setApprovalForAll",
      "outputs": [],
      "stateMutability": "nonpayable",
      "type": "function"
    },
    {
      "inputs": [
        {
          "internalType": "bytes4",
          "name": "interfaceId",
          "type": "bytes4"
        }
      ],
      "name": "supportsInterface",
      "outputs": [
        {
          "internalType": "bool",
          "name": "",
          "type": "bool"
        }
      ],
      "stateMutability": "pure",
      "type": "function"
    },
    {
      "inputs": [],
      "name": "symbol",
      "outputs": [
        {
          "internalType": "string",
          "name": "",
          "type": "string"
        }
      ],
      "stateMutability": "view",
      "type": "function"
    },
    {
      "inputs": [
        {
          "internalType": "address",
          "name": "from",
          "type": "address"
        },
        {
          "internalType": "address",
          "name": "to",
          "type": "address"
        },
        {
          "internalType": "uint256",
          "name": "id",
          "type": "uint256"
        }
      ],
      "name": "transferFrom",
      "outputs": [],
      "stateMutability": "nonpayable",
      "type": "function"
    }
  ],
  "bytecode": "0x60806040523480156200001157600080fd5b506200002e676b22defbdfec65e860c01b620000fa60201b60201c565b6200004a67f1b0cce6de638a2060c01b620000fa60201b60201c565b6040518060400160405280600581526020017f41727069740000000000000000000000000000000000000000000000000000008152506000908162000090919062000377565b50620000ad673f85ea010a0aa0ab60c01b620000fa60201b60201c565b6040518060400160405280600381526020017f415250000000000000000000000000000000000000000000000000000000000081525060019081620000f3919062000377565b506200045e565b50565b600081519050919050565b7f4e487b7100000000000000000000000000000000000000000000000000000000600052604160045260246000fd5b7f4e487b7100000000000000000000000000000000000000000000000000000000600052602260045260246000fd5b600060028204905060018216806200017f57607f821691505b60208210810362000195576200019462000137565b5b50919050565b60008190508160005260206000209050919050565b60006020601f8301049050919050565b600082821b905092915050565b600060088302620001ff7fffffffffffffffffffffffffffffffffffffffffffffffffffffffffffffffff82620001c0565b6200020b8683620001c0565b95508019841693508086168417925050509392505050565b6000819050919050565b6000819050919050565b600062000258620002526200024c8462000223565b6200022d565b62000223565b9050919050565b6000819050919050565b620002748362000237565b6200028c62000283826200025f565b848454620001cd565b825550505050565b600090565b620002a362000294565b620002b081848462000269565b505050565b5b81811015620002d857620002cc60008262000299565b600181019050620002b6565b5050565b601f8211156200032757620002f1816200019b565b620002fc84620001b0565b810160208510156200030c578190505b620003246200031b85620001b0565b830182620002b5565b50505b505050565b600082821c905092915050565b60006200034c600019846008026200032c565b1980831691505092915050565b600062000367838362000339565b9150826002028217905092915050565b6200038282620000fd565b67ffffffffffffffff8111156200039e576200039d62000108565b5b620003aa825462000166565b620003b7828285620002dc565b600060209050601f831160018114620003ef5760008415620003da578287015190505b620003e6858262000359565b86555062000456565b601f198416620003ff866200019b565b60005b82811015620004295784890151825560018201915060208501945060208101905062000402565b8683101562000449578489015162000445601f89168262000339565b8355505b6001600288020188555050505b505050505050565b612afd806200046e6000396000f3fe608060405234801561001057600080fd5b50600436106100ea5760003560e01c806342966c681161008c57806395d89b411161006657806395d89b4114610259578063a22cb46514610277578063b88d4fde14610293578063e985e9c5146102af576100ea565b806342966c68146101dd5780636352211e146101f957806370a0823114610229576100ea565b8063095ea7b3116100c8578063095ea7b31461016d57806323b872dd1461018957806340c10f19146101a557806342842e0e146101c1576100ea565b806301ffc9a7146100ef57806306fdde031461011f578063081812fc1461013d575b600080fd5b61010960048036038101906101049190611f8b565b6102df565b6040516101169190611fd3565b60405180910390f35b610127610425565b604051610134919061207e565b60405180910390f35b610157600480360381019061015291906120d6565b6104b3565b6040516101649190612144565b60405180910390f35b6101876004803603810190610182919061218b565b61061e565b005b6101a3600480360381019061019e91906121cb565b610907565b005b6101bf60048036038101906101ba919061218b565b610d6f565b005b6101db60048036038101906101d691906121cb565b610db9565b005b6101f760048036038101906101f291906120d6565b610fb5565b005b610213600480360381019061020e91906120d6565b6110ee565b6040516102209190612144565b60405180910390f35b610243600480360381019061023e919061221e565b611212565b604051610250919061225a565b60405180910390f35b610261611356565b60405161026e919061207e565b60405180910390f35b610291600480360381019061028c91906122a1565b6113e4565b005b6102ad60048036038101906102a89190612346565b611531565b005b6102c960048036038101906102c491906123ce565b611733565b6040516102d69190611fd3565b60405180910390f35b60006102f5675334f6716b58bd2d60c01b611762565b61030967e5848963a1a39baa60c01b611762565b61031d6787fcb6458988e79d60c01b611762565b7f80ac58cd000000000000000000000000000000000000000000000000000000007bffffffffffffffffffffffffffffffffffffffffffffffffffffffff1916827bffffffffffffffffffffffffffffffffffffffffffffffffffffffff191614801561039a57506103996740b7720ac54b145560c01b611765565b5b8061041e57507f01ffc9a7000000000000000000000000000000000000000000000000000000007bffffffffffffffffffffffffffffffffffffffffffffffffffffffff1916827bffffffffffffffffffffffffffffffffffffffffffffffffffffffff191614801561041d575061041c679a7402c22105c0dd60c01b611765565b5b5b9050919050565b600080546104329061243d565b80601f016020809104026020016040519081016040528092919081815260200182805461045e9061243d565b80156104ab5780601f10610480576101008083540402835291602001916104ab565b820191906000526020600020905b81548152906001019060200180831161048e57829003601f168201915b505050505081565b60006104c9673ae3f034a692f3ba60c01b611762565b6104dd67e58c74283361ae2760c01b611762565b6104f167328199a8f9e6d12360c01b611762565b610505677ebbc0cee3249f7e60c01b611762565b600073ffffffffffffffffffffffffffffffffffffffff166002600084815260200190815260200160002060009054906101000a900473ffffffffffffffffffffffffffffffffffffffff1673ffffffffffffffffffffffffffffffffffffffff16036105a7576040517f08c379a000000000000000000000000000000000000000000000000000000000815260040161059e906124ba565b60405180910390fd5b6105bb6706accb9c64b99ac360c01b611762565b6105cf67856765af75fb216660c01b611762565b6105e3676a0dfbb2ded841a960c01b611762565b6004600083815260200190815260200160002060009054906101000a900473ffffffffffffffffffffffffffffffffffffffff169050919050565b61063267c06f352b72d2ee9360c01b611762565b610646675a4c5040793dea0360c01b611762565b61065a67843f30ee0383e6e860c01b611762565b60006002600083815260200190815260200160002060009054906101000a900473ffffffffffffffffffffffffffffffffffffffff1690506106a667515519f82b0b252360c01b611762565b6106ba677d0624be5fb7144060c01b611762565b6106ce670dfc88dbe952cd2860c01b611762565b8073ffffffffffffffffffffffffffffffffffffffff163373ffffffffffffffffffffffffffffffffffffffff16148015610719575061071867f08987176d9a0eb860c01b611765565b5b806107c65750600560008273ffffffffffffffffffffffffffffffffffffffff1673ffffffffffffffffffffffffffffffffffffffff16815260200190815260200160002060003373ffffffffffffffffffffffffffffffffffffffff1673ffffffffffffffffffffffffffffffffffffffff16815260200190815260200160002060009054906101000a900460ff1680156107c557506107c46782efe44665d8cda060c01b611765565b5b5b610805576040517f08c379a00000000000000000000000000000000000000000000000000000000081526004016107fc90612526565b60405180910390fd5b6108196798e0f5a1462cc6b360c01b611762565b61082d6795c5ad01c3e60a2860c01b611762565b826004600084815260200190815260200160002060006101000a81548173ffffffffffffffffffffffffffffffffffffffff021916908373ffffffffffffffffffffffffffffffffffffffff160217905550610893679dc42076de79e15060c01b611762565b6108a767540bde4360892d5d60c01b611762565b818373ffffffffffffffffffffffffffffffffffffffff168273ffffffffffffffffffffffffffffffffffffffff167f8c5be1e5ebec7d5bd14f71427d1e84f3dd0314c0f7b2291e5b200ac8c7c3b92560405160405180910390a4505050565b61091b67b38ac976fdb2460760c01b611762565b61092f673a0bf6aa66de360160c01b611762565b61094367e4b404c3317df6da60c01b611762565b6109576729b41a232d6c604760c01b611762565b6002600082815260200190815260200160002060009054906101000a900473ffffffffffffffffffffffffffffffffffffffff1673ffffffffffffffffffffffffffffffffffffffff168373ffffffffffffffffffffffffffffffffffffffff16146109f8576040517f08c379a00000000000000000000000000000000000000000000000000000000081526004016109ef90612592565b60405180910390fd5b610a0c67c063bc1f1390704060c01b611762565b610a20673537269872c65ad360c01b611762565b610a346720e08a04e2ef4d4960c01b611762565b610a486765b1fe06546e6b0960c01b611762565b600073ffffffffffffffffffffffffffffffffffffffff168273ffffffffffffffffffffffffffffffffffffffff1603610ab7576040517f08c379a0000000000000000000000000000000000000000000000000000000008152600401610aae906125fe565b60405180910390fd5b610acb67dca715eb7733ee4f60c01b611762565b610adf67243c44e5b5b33a8b60c01b611762565b610af3676fc51f7b374e0c0460c01b611762565b610b0767ac9827ed147ab0eb60c01b611762565b610b12833383611770565b610b51576040517f08c379a0000000000000000000000000000000000000000000000000000000008152600401610b4890612526565b60405180910390fd5b610b6567662feaa40d53141f60c01b611762565b610b79670889034c297a378d60c01b611762565b600360008473ffffffffffffffffffffffffffffffffffffffff1673ffffffffffffffffffffffffffffffffffffffff1681526020019081526020016000206000815480929190610bc99061264d565b9190505550610be267ca1ba016df639a3760c01b611762565b600360008373ffffffffffffffffffffffffffffffffffffffff1673ffffffffffffffffffffffffffffffffffffffff1681526020019081526020016000206000815480929190610c3290612676565b9190505550610c4b674163059f97562efb60c01b611762565b816002600083815260200190815260200160002060006101000a81548173ffffffffffffffffffffffffffffffffffffffff021916908373ffffffffffffffffffffffffffffffffffffffff160217905550610cb1678b65fbdba55bba9660c01b611762565b6004600082815260200190815260200160002060006101000a81549073ffffffffffffffffffffffffffffffffffffffff0219169055610cfb67962aee8c91f43b9960c01b611762565b610d0f675214b52e46c95a9460c01b611762565b808273ffffffffffffffffffffffffffffffffffffffff168473ffffffffffffffffffffffffffffffffffffffff167fddf252ad1be2c89b69c2b068fc378daa952ba7f163c4a11628f55a4df523b3ef60405160405180910390a4505050565b610d836751276cc240858c7160c01b611950565b610d97676b3273583906c37560c01b611950565b610dab670d4e1effb8ca864460c01b611950565b610db58282611953565b5050565b610dcd67c5c7cf1f4dfa605760c01b611762565b610de1670cd80b9af50938b560c01b611762565b610df567dc00ebd92fdc039f60c01b611762565b610e00838383610907565b610e146772456d349014798960c01b611762565b610e28670399fbeebb26ef9f60c01b611762565b610e3c675e1029f9f102e28e60c01b611762565b60008273ffffffffffffffffffffffffffffffffffffffff163b148015610e735750610e7267b8af6c205270eb0760c01b611765565b5b80610f5d575063150b7a0260e01b7bffffffffffffffffffffffffffffffffffffffffffffffffffffffff19168273ffffffffffffffffffffffffffffffffffffffff1663150b7a023386856040518463ffffffff1660e01b8152600401610edd939291906126f5565b6020604051808303816000875af1158015610efc573d6000803e3d6000fd5b505050506040513d601f19601f82011682018060405250810190610f209190612754565b7bffffffffffffffffffffffffffffffffffffffffffffffffffffffff1916148015610f5c5750610f5b6781d3130f6427b2bf60c01b611765565b5b5b610f9c576040517f08c379a0000000000000000000000000000000000000000000000000000000008152600401610f93906127cd565b60405180910390fd5b610fb067f1c4120a914f9f1360c01b611762565b505050565b610fc9675898e24c57f8df9460c01b611950565b610fdd67ea7e67418196589b60c01b611950565b610ff1674a1f675cab0d82c760c01b611950565b61100567f0361193ce1c622160c01b611950565b6002600082815260200190815260200160002060009054906101000a900473ffffffffffffffffffffffffffffffffffffffff1673ffffffffffffffffffffffffffffffffffffffff163373ffffffffffffffffffffffffffffffffffffffff16146110a6576040517f08c379a000000000000000000000000000000000000000000000000000000000815260040161109d90612839565b60405180910390fd5b6110ba67db5d7d9415dfff0860c01b611950565b6110ce67b95008f8530faee560c01b611950565b6110e267b68995e42c42de5d60c01b611950565b6110eb81611c6f565b50565b600061110467eb39d9ec09f8194060c01b611762565b61111867ab6f6051a5bac84660c01b611762565b6002600083815260200190815260200160002060009054906101000a900473ffffffffffffffffffffffffffffffffffffffff169050611162674977a6edb5249e6b60c01b611762565b61117667e8c942ca6e5019f160c01b611762565b61118a67d8fc023850153e0c60c01b611762565b600073ffffffffffffffffffffffffffffffffffffffff168173ffffffffffffffffffffffffffffffffffffffff16036111f9576040517f08c379a00000000000000000000000000000000000000000000000000000000081526004016111f0906124ba565b60405180910390fd5b61120d67a5d57ca1516610a260c01b611762565b919050565b60006112286727707d9bddf648b060c01b611762565b61123c674d0435900d6459da60c01b611762565b61125067096443d1d9a0158660c01b611762565b611264673a25b660378888c760c01b611762565b600073ffffffffffffffffffffffffffffffffffffffff168273ffffffffffffffffffffffffffffffffffffffff16036112d3576040517f08c379a00000000000000000000000000000000000000000000000000000000081526004016112ca906128a5565b60405180910390fd5b6112e767993ecea53787024260c01b611762565b6112fb67e5b61c45e1fbe94c60c01b611762565b61130f6745eb6ff2414389e860c01b611762565b600360008373ffffffffffffffffffffffffffffffffffffffff1673ffffffffffffffffffffffffffffffffffffffff168152602001908152602001600020549050919050565b600180546113639061243d565b80601f016020809104026020016040519081016040528092919081815260200182805461138f9061243d565b80156113dc5780601f106113b1576101008083540402835291602001916113dc565b820191906000526020600020905b8154815290600101906020018083116113bf57829003601f168201915b505050505081565b6113f867ae5095c1e1921bf960c01b611762565b61140c67ea04ea2c2dd8253260c01b611762565b80600560003373ffffffffffffffffffffffffffffffffffffffff1673ffffffffffffffffffffffffffffffffffffffff16815260200190815260200160002060008473ffffffffffffffffffffffffffffffffffffffff1673ffffffffffffffffffffffffffffffffffffffff16815260200190815260200160002060006101000a81548160ff0219169083151502179055506114b46799d9b1821955dd6360c01b611762565b6114c8672ea4eeb1bc7c284060c01b611762565b8173ffffffffffffffffffffffffffffffffffffffff163373ffffffffffffffffffffffffffffffffffffffff167f17307eab39ab6107e8899845ad3d59bd9653f200f220920489ca2b5937696c31836040516115259190611fd3565b60405180910390a35050565b61154567c4f972f3e1deb82c60c01b611762565b611559671c3d01c57e27b90160c01b611762565b61156d670d045c665a3e434660c01b611762565b611578858585610907565b61158c678714f7d28d4d8c6c60c01b611762565b6115a067cc1f2dbbbd6736ee60c01b611762565b6115b467b98b10832de9960060c01b611762565b60008473ffffffffffffffffffffffffffffffffffffffff163b1480156115eb57506115ea677fc3141c789b692d60c01b611765565b5b806116d9575063150b7a0260e01b7bffffffffffffffffffffffffffffffffffffffffffffffffffffffff19168473ffffffffffffffffffffffffffffffffffffffff1663150b7a0233888787876040518663ffffffff1660e01b8152600401611659959493929190612901565b6020604051808303816000875af1158015611678573d6000803e3d6000fd5b505050506040513d601f19601f8201168201806040525081019061169c9190612754565b7bffffffffffffffffffffffffffffffffffffffffffffffffffffffff19161480156116d857506116d767e11cb0e4bd0bf69c60c01b611765565b5b5b611718576040517f08c379a000000000000000000000000000000000000000000000000000000000815260040161170f906127cd565b60405180910390fd5b61172c674fa7636c8a43156560c01b611762565b5050505050565b60056020528160005260406000206020528060005260406000206000915091509054906101000a900460ff1681565b50565b600060019050919050565b60006117866780d2ca321d69414160c01b611762565b61179a675c5b278fb42f3eaf60c01b611762565b6117ae6783533c78cd80ed1960c01b611762565b8373ffffffffffffffffffffffffffffffffffffffff168373ffffffffffffffffffffffffffffffffffffffff161480156117f957506117f86748a3417b76841dd760c01b611765565b5b806118c25750600560008573ffffffffffffffffffffffffffffffffffffffff1673ffffffffffffffffffffffffffffffffffffffff16815260200190815260200160002060008473ffffffffffffffffffffffffffffffffffffffff1673ffffffffffffffffffffffffffffffffffffffff16815260200190815260200160002060009054906101000a900460ff1680156118a557506118a467537fbad961c44f6460c01b611765565b5b80156118c157506118c06710d8463b4ee794fb60c01b611765565b5b5b8061194757506004600083815260200190815260200160002060009054906101000a900473ffffffffffffffffffffffffffffffffffffffff1673ffffffffffffffffffffffffffffffffffffffff168373ffffffffffffffffffffffffffffffffffffffff16148015611946575061194567b01890a79146783b60c01b611765565b5b5b90509392505050565b50565b61196767bb9aa87a6d332cab60c01b611762565b61197b67f0d8db1220c172cb60c01b611762565b61198f6712f714cebca2aec960c01b611762565b6119a367617886d65612af0460c01b611762565b600073ffffffffffffffffffffffffffffffffffffffff168273ffffffffffffffffffffffffffffffffffffffff1603611a12576040517f08c379a0000000000000000000000000000000000000000000000000000000008152600401611a099061299b565b60405180910390fd5b611a26676cdd6a559b15d04560c01b611762565b611a3a67d514418ef0e29d1f60c01b611762565b611a4e67e6299beac2657d7b60c01b611762565b611a62673b4d99b5bd8e8d9860c01b611762565b600073ffffffffffffffffffffffffffffffffffffffff166002600083815260200190815260200160002060009054906101000a900473ffffffffffffffffffffffffffffffffffffffff1673ffffffffffffffffffffffffffffffffffffffff1614611b04576040517f08c379a0000000000000000000000000000000000000000000000000000000008152600401611afb90612a07565b60405180910390fd5b611b18679400171e74b5904360c01b611762565b611b2c674b53363aa763c81060c01b611762565b600360008373ffffffffffffffffffffffffffffffffffffffff1673ffffffffffffffffffffffffffffffffffffffff1681526020019081526020016000206000815480929190611b7c90612676565b9190505550611b9567b42f8ceeb9d5f94160c01b611762565b816002600083815260200190815260200160002060006101000a81548173ffffffffffffffffffffffffffffffffffffffff021916908373ffffffffffffffffffffffffffffffffffffffff160217905550611bfb679e1d27973d1101d160c01b611762565b611c0f67d86b036c6abc375c60c01b611762565b808273ffffffffffffffffffffffffffffffffffffffff16600073ffffffffffffffffffffffffffffffffffffffff167fddf252ad1be2c89b69c2b068fc378daa952ba7f163c4a11628f55a4df523b3ef60405160405180910390a45050565b611c836757116a0b9a530d6e60c01b611762565b611c97674479499be817410460c01b611762565b611cab67a755e4dc9176311a60c01b611762565b60006002600083815260200190815260200160002060009054906101000a900473ffffffffffffffffffffffffffffffffffffffff169050611cf767ab9b1c2a301bb61460c01b611762565b611d0b679ba8818596a047b860c01b611762565b611d1f678f5e22e895d9dc0e60c01b611762565b600073ffffffffffffffffffffffffffffffffffffffff168173ffffffffffffffffffffffffffffffffffffffff1603611d8e576040517f08c379a0000000000000000000000000000000000000000000000000000000008152600401611d8590612a73565b60405180910390fd5b611da2672c38e77dedd25c3c60c01b611762565b611db66728dd1cf66770819e60c01b611762565b6001600360008373ffffffffffffffffffffffffffffffffffffffff1673ffffffffffffffffffffffffffffffffffffffff1681526020019081526020016000206000828254611e069190612a93565b92505081905550611e2167782e66eed3dff15d60c01b611762565b6002600083815260200190815260200160002060006101000a81549073ffffffffffffffffffffffffffffffffffffffff0219169055611e6b67b93b4990233eeb9c60c01b611762565b6004600083815260200190815260200160002060006101000a81549073ffffffffffffffffffffffffffffffffffffffff0219169055611eb567391385e42aadd8fe60c01b611762565b611ec9678c5f18feb4bdfc6060c01b611762565b81600073ffffffffffffffffffffffffffffffffffffffff168273ffffffffffffffffffffffffffffffffffffffff167fddf252ad1be2c89b69c2b068fc378daa952ba7f163c4a11628f55a4df523b3ef60405160405180910390a45050565b600080fd5b600080fd5b60007fffffffff0000000000000000000000000000000000000000000000000000000082169050919050565b611f6881611f33565b8114611f7357600080fd5b50565b600081359050611f8581611f5f565b92915050565b600060208284031215611fa157611fa0611f29565b5b6000611faf84828501611f76565b91505092915050565b60008115159050919050565b611fcd81611fb8565b82525050565b6000602082019050611fe86000830184611fc4565b92915050565b600081519050919050565b600082825260208201905092915050565b60005b8381101561202857808201518184015260208101905061200d565b60008484015250505050565b6000601f19601f8301169050919050565b600061205082611fee565b61205a8185611ff9565b935061206a81856020860161200a565b61207381612034565b840191505092915050565b600060208201905081810360008301526120988184612045565b905092915050565b6000819050919050565b6120b3816120a0565b81146120be57600080fd5b50565b6000813590506120d0816120aa565b92915050565b6000602082840312156120ec576120eb611f29565b5b60006120fa848285016120c1565b91505092915050565b600073ffffffffffffffffffffffffffffffffffffffff82169050919050565b600061212e82612103565b9050919050565b61213e81612123565b82525050565b60006020820190506121596000830184612135565b92915050565b61216881612123565b811461217357600080fd5b50565b6000813590506121858161215f565b92915050565b600080604083850312156121a2576121a1611f29565b5b60006121b085828601612176565b92505060206121c1858286016120c1565b9150509250929050565b6000806000606084860312156121e4576121e3611f29565b5b60006121f286828701612176565b935050602061220386828701612176565b9250506040612214868287016120c1565b9150509250925092565b60006020828403121561223457612233611f29565b5b600061224284828501612176565b91505092915050565b612254816120a0565b82525050565b600060208201905061226f600083018461224b565b92915050565b61227e81611fb8565b811461228957600080fd5b50565b60008135905061229b81612275565b92915050565b600080604083850312156122b8576122b7611f29565b5b60006122c685828601612176565b92505060206122d78582860161228c565b9150509250929050565b600080fd5b600080fd5b600080fd5b60008083601f840112612306576123056122e1565b5b8235905067ffffffffffffffff811115612323576123226122e6565b5b60208301915083600182028301111561233f5761233e6122eb565b5b9250929050565b60008060008060006080868803121561236257612361611f29565b5b600061237088828901612176565b955050602061238188828901612176565b9450506040612392888289016120c1565b935050606086013567ffffffffffffffff8111156123b3576123b2611f2e565b5b6123bf888289016122f0565b92509250509295509295909350565b600080604083850312156123e5576123e4611f29565b5b60006123f385828601612176565b925050602061240485828601612176565b9150509250929050565b7f4e487b7100000000000000000000000000000000000000000000000000000000600052602260045260246000fd5b6000600282049050600182168061245557607f821691505b6020821081036124685761246761240e565b5b50919050565b7f746f6b656e20646f65736e277420657869737400000000000000000000000000600082015250565b60006124a4601383611ff9565b91506124af8261246e565b602082019050919050565b600060208201905081810360008301526124d381612497565b9050919050565b7f6e6f7420617574686f72697a6564000000000000000000000000000000000000600082015250565b6000612510600e83611ff9565b915061251b826124da565b602082019050919050565b6000602082019050818103600083015261253f81612503565b9050919050565b7f66726f6d20213d206f776e657200000000000000000000000000000000000000600082015250565b600061257c600d83611ff9565b915061258782612546565b602082019050919050565b600060208201905081810360008301526125ab8161256f565b9050919050565b7f7472616e7366657220746f207a65726f20616464726573730000000000000000600082015250565b60006125e8601883611ff9565b91506125f3826125b2565b602082019050919050565b60006020820190508181036000830152612617816125db565b9050919050565b7f4e487b7100000000000000000000000000000000000000000000000000000000600052601160045260246000fd5b6000612658826120a0565b91506000820361266b5761266a61261e565b5b600182039050919050565b6000612681826120a0565b91507fffffffffffffffffffffffffffffffffffffffffffffffffffffffffffffffff82036126b3576126b261261e565b5b600182019050919050565b600082825260208201905092915050565b50565b60006126df6000836126be565b91506126ea826126cf565b600082019050919050565b600060808201905061270a6000830186612135565b6127176020830185612135565b612724604083018461224b565b8181036060830152612735816126d2565b9050949350505050565b60008151905061274e81611f5f565b92915050565b60006020828403121561276a57612769611f29565b5b60006127788482850161273f565b91505092915050565b7f756e7361666520726563697069656e7400000000000000000000000000000000600082015250565b60006127b7601083611ff9565b91506127c282612781565b602082019050919050565b600060208201905081810360008301526127e6816127aa565b9050919050565b7f6e6f74206f776e65720000000000000000000000000000000000000000000000600082015250565b6000612823600983611ff9565b915061282e826127ed565b602082019050919050565b6000602082019050818103600083015261285281612816565b9050919050565b7f6f776e6572203d207a65726f2061646472657373000000000000000000000000600082015250565b600061288f601483611ff9565b915061289a82612859565b602082019050919050565b600060208201905081810360008301526128be81612882565b9050919050565b82818337600083830152505050565b60006128e083856126be565b93506128ed8385846128c5565b6128f683612034565b840190509392505050565b60006080820190506129166000830188612135565b6129236020830187612135565b612930604083018661224b565b81810360608301526129438184866128d4565b90509695505050505050565b7f6d696e7420746f207a65726f2061646472657373000000000000000000000000600082015250565b6000612985601483611ff9565b91506129908261294f565b602082019050919050565b600060208201905081810360008301526129b481612978565b9050919050565b7f616c7265616479206d696e746564000000000000000000000000000000000000600082015250565b60006129f1600e83611ff9565b91506129fc826129bb565b602082019050919050565b60006020820190508181036000830152612a20816129e4565b9050919050565b7f6e6f74206d696e74656400000000000000000000000000000000000000000000600082015250565b6000612a5d600a83611ff9565b9150612a6882612a27565b602082019050919050565b60006020820190508181036000830152612a8c81612a50565b9050919050565b6000612a9e826120a0565b9150612aa9836120a0565b9250828203905081811115612ac157612ac061261e565b5b9291505056fea26469706673582212206efe61d52827cfd5cb9290b4c0e650036ed320b36c8388b636fbfec7d4feb66564736f6c63430008110033",
  "linkReferences": {},
  "deployedLinkReferences": {}
}