{
  "_format": "hh-sol-artifact-1",
  "contractName": "ERC721",
  "sourceName": "contracts/ERC_721.sol",
  "abi": [
    {
      "inputs": [],
      "stateMutability": "nonpayable",
      "type": "constructor"
    },
    {
      "anonymous": false,
      "inputs": [
        {
          "indexed": true,
          "internalType": "address",
          "name": "owner",
          "type": "address"
        },
        {
          "indexed": true,
          "internalType": "address",
          "name": "spender",
          "type": "address"
        },
        {
          "indexed": true,
          "internalType": "uint256",
          "name": "id",
          "type": "uint256"
        }
      ],
      "name": "Approval",
      "type": "event"
    },
    {
      "anonymous": false,
      "inputs": [
        {
          "indexed": true,
          "internalType": "address",
          "name": "owner",
          "type": "address"
        },
        {
          "indexed": true,
          "internalType": "address",
          "name": "operator",
          "type": "address"
        },
        {
          "indexed": false,
          "internalType": "bool",
          "name": "approved",
          "type": "bool"
        }
      ],
      "name": "ApprovalForAll",
      "type": "event"
    },
    {
      "anonymous": false,
      "inputs": [
        {
          "indexed": true,
          "internalType": "address",
          "name": "from",
          "type": "address"
        },
        {
          "indexed": true,
          "internalType": "address",
          "name": "to",
          "type": "address"
        },
        {
          "indexed": true,
          "internalType": "uint256",
          "name": "id",
          "type": "uint256"
        }
      ],
      "name": "Transfer",
      "type": "event"
    },
    {
      "inputs": [
        {
          "internalType": "address",
          "name": "spender",
          "type": "address"
        },
        {
          "internalType": "uint256",
          "name": "id",
          "type": "uint256"
        }
      ],
      "name": "approve",
      "outputs": [],
      "stateMutability": "nonpayable",
      "type": "function"
    },
    {
      "inputs": [
        {
          "internalType": "address",
          "name": "owner",
          "type": "address"
        }
      ],
      "name": "balanceOf",
      "outputs": [
        {
          "internalType": "uint256",
          "name": "",
          "type": "uint256"
        }
      ],
      "stateMutability": "view",
      "type": "function"
    },
    {
      "inputs": [
        {
          "internalType": "uint256",
          "name": "id",
          "type": "uint256"
        }
      ],
      "name": "getApproved",
      "outputs": [
        {
          "internalType": "address",
          "name": "",
          "type": "address"
        }
      ],
      "stateMutability": "view",
      "type": "function"
    },
    {
      "inputs": [
        {
          "internalType": "address",
          "name": "",
          "type": "address"
        },
        {
          "internalType": "address",
          "name": "",
          "type": "address"
        }
      ],
      "name": "isApprovedForAll",
      "outputs": [
        {
          "internalType": "bool",
          "name": "",
          "type": "bool"
        }
      ],
      "stateMutability": "view",
      "type": "function"
    },
    {
      "inputs": [],
      "name": "name",
      "outputs": [
        {
          "internalType": "string",
          "name": "",
          "type": "string"
        }
      ],
      "stateMutability": "view",
      "type": "function"
    },
    {
      "inputs": [
        {
          "internalType": "uint256",
          "name": "id",
          "type": "uint256"
        }
      ],
      "name": "ownerOf",
      "outputs": [
        {
          "internalType": "address",
          "name": "owner",
          "type": "address"
        }
      ],
      "stateMutability": "view",
      "type": "function"
    },
    {
      "inputs": [
        {
          "internalType": "address",
          "name": "from",
          "type": "address"
        },
        {
          "internalType": "address",
          "name": "to",
          "type": "address"
        },
        {
          "internalType": "uint256",
          "name": "id",
          "type": "uint256"
        }
      ],
      "name": "safeTransferFrom",
      "outputs": [],
      "stateMutability": "nonpayable",
      "type": "function"
    },
    {
      "inputs": [
        {
          "internalType": "address",
          "name": "from",
          "type": "address"
        },
        {
          "internalType": "address",
          "name": "to",
          "type": "address"
        },
        {
          "internalType": "uint256",
          "name": "id",
          "type": "uint256"
        },
        {
          "internalType": "bytes",
          "name": "data",
          "type": "bytes"
        }
      ],
      "name": "safeTransferFrom",
      "outputs": [],
      "stateMutability": "nonpayable",
      "type": "function"
    },
    {
      "inputs": [
        {
          "internalType": "address",
          "name": "operator",
          "type": "address"
        },
        {
          "internalType": "bool",
          "name": "approved",
          "type": "bool"
        }
      ],
      "name": "setApprovalForAll",
      "outputs": [],
      "stateMutability": "nonpayable",
      "type": "function"
    },
    {
      "inputs": [
        {
          "internalType": "bytes4",
          "name": "interfaceId",
          "type": "bytes4"
        }
      ],
      "name": "supportsInterface",
      "outputs": [
        {
          "internalType": "bool",
          "name": "",
          "type": "bool"
        }
      ],
      "stateMutability": "pure",
      "type": "function"
    },
    {
      "inputs": [],
      "name": "symbol",
      "outputs": [
        {
          "internalType": "string",
          "name": "",
          "type": "string"
        }
      ],
      "stateMutability": "view",
      "type": "function"
    },
    {
      "inputs": [
        {
          "internalType": "address",
          "name": "from",
          "type": "address"
        },
        {
          "internalType": "address",
          "name": "to",
          "type": "address"
        },
        {
          "internalType": "uint256",
          "name": "id",
          "type": "uint256"
        }
      ],
      "name": "transferFrom",
      "outputs": [],
      "stateMutability": "nonpayable",
      "type": "function"
    }
  ],
  "bytecode": "0x60806040523480156200001157600080fd5b506200002e676b22defbdfec65e860c01b620000fa60201b60201c565b6200004a67f1b0cce6de638a2060c01b620000fa60201b60201c565b6040518060400160405280600581526020017f41727069740000000000000000000000000000000000000000000000000000008152506000908162000090919062000377565b50620000ad673f85ea010a0aa0ab60c01b620000fa60201b60201c565b6040518060400160405280600381526020017f415250000000000000000000000000000000000000000000000000000000000081525060019081620000f3919062000377565b506200045e565b50565b600081519050919050565b7f4e487b7100000000000000000000000000000000000000000000000000000000600052604160045260246000fd5b7f4e487b7100000000000000000000000000000000000000000000000000000000600052602260045260246000fd5b600060028204905060018216806200017f57607f821691505b60208210810362000195576200019462000137565b5b50919050565b60008190508160005260206000209050919050565b60006020601f8301049050919050565b600082821b905092915050565b600060088302620001ff7fffffffffffffffffffffffffffffffffffffffffffffffffffffffffffffffff82620001c0565b6200020b8683620001c0565b95508019841693508086168417925050509392505050565b6000819050919050565b6000819050919050565b600062000258620002526200024c8462000223565b6200022d565b62000223565b9050919050565b6000819050919050565b620002748362000237565b6200028c62000283826200025f565b848454620001cd565b825550505050565b600090565b620002a362000294565b620002b081848462000269565b505050565b5b81811015620002d857620002cc60008262000299565b600181019050620002b6565b5050565b601f8211156200032757620002f1816200019b565b620002fc84620001b0565b810160208510156200030c578190505b620003246200031b85620001b0565b830182620002b5565b50505b505050565b600082821c905092915050565b60006200034c600019846008026200032c565b1980831691505092915050565b600062000367838362000339565b9150826002028217905092915050565b6200038282620000fd565b67ffffffffffffffff8111156200039e576200039d62000108565b5b620003aa825462000166565b620003b7828285620002dc565b600060209050601f831160018114620003ef5760008415620003da578287015190505b620003e6858262000359565b86555062000456565b601f198416620003ff866200019b565b60005b82811015620004295784890151825560018201915060208501945060208101905062000402565b8683101562000449578489015162000445601f89168262000339565b8355505b6001600288020188555050505b505050505050565b61214f806200046e6000396000f3fe608060405234801561001057600080fd5b50600436106100b45760003560e01c80636352211e116100715780636352211e1461018b57806370a08231146101bb57806395d89b41146101eb578063a22cb46514610209578063b88d4fde14610225578063e985e9c514610241576100b4565b806301ffc9a7146100b957806306fdde03146100e9578063081812fc14610107578063095ea7b31461013757806323b872dd1461015357806342842e0e1461016f575b600080fd5b6100d360048036038101906100ce91906117c1565b610271565b6040516100e09190611809565b60405180910390f35b6100f16103b7565b6040516100fe91906118b4565b60405180910390f35b610121600480360381019061011c919061190c565b610445565b60405161012e919061197a565b60405180910390f35b610151600480360381019061014c91906119c1565b6105b0565b005b61016d60048036038101906101689190611a01565b610899565b005b61018960048036038101906101849190611a01565b610d01565b005b6101a560048036038101906101a0919061190c565b610efd565b6040516101b2919061197a565b60405180910390f35b6101d560048036038101906101d09190611a54565b611021565b6040516101e29190611a90565b60405180910390f35b6101f3611165565b60405161020091906118b4565b60405180910390f35b610223600480360381019061021e9190611ad7565b6111f3565b005b61023f600480360381019061023a9190611b7c565b611340565b005b61025b60048036038101906102569190611c04565b611542565b6040516102689190611809565b60405180910390f35b6000610287675334f6716b58bd2d60c01b611571565b61029b67e5848963a1a39baa60c01b611571565b6102af6787fcb6458988e79d60c01b611571565b7f80ac58cd000000000000000000000000000000000000000000000000000000007bffffffffffffffffffffffffffffffffffffffffffffffffffffffff1916827bffffffffffffffffffffffffffffffffffffffffffffffffffffffff191614801561032c575061032b6740b7720ac54b145560c01b611574565b5b806103b057507f01ffc9a7000000000000000000000000000000000000000000000000000000007bffffffffffffffffffffffffffffffffffffffffffffffffffffffff1916827bffffffffffffffffffffffffffffffffffffffffffffffffffffffff19161480156103af57506103ae679a7402c22105c0dd60c01b611574565b5b5b9050919050565b600080546103c490611c73565b80601f01602080910402602001604051908101604052809291908181526020018280546103f090611c73565b801561043d5780601f106104125761010080835404028352916020019161043d565b820191906000526020600020905b81548152906001019060200180831161042057829003601f168201915b505050505081565b600061045b673ae3f034a692f3ba60c01b611571565b61046f67e58c74283361ae2760c01b611571565b61048367328199a8f9e6d12360c01b611571565b610497677ebbc0cee3249f7e60c01b611571565b600073ffffffffffffffffffffffffffffffffffffffff166002600084815260200190815260200160002060009054906101000a900473ffffffffffffffffffffffffffffffffffffffff1673ffffffffffffffffffffffffffffffffffffffff1603610539576040517f08c379a000000000000000000000000000000000000000000000000000000000815260040161053090611cf0565b60405180910390fd5b61054d6706accb9c64b99ac360c01b611571565b61056167856765af75fb216660c01b611571565b610575676a0dfbb2ded841a960c01b611571565b6004600083815260200190815260200160002060009054906101000a900473ffffffffffffffffffffffffffffffffffffffff169050919050565b6105c467c06f352b72d2ee9360c01b611571565b6105d8675a4c5040793dea0360c01b611571565b6105ec67843f30ee0383e6e860c01b611571565b60006002600083815260200190815260200160002060009054906101000a900473ffffffffffffffffffffffffffffffffffffffff16905061063867515519f82b0b252360c01b611571565b61064c677d0624be5fb7144060c01b611571565b610660670dfc88dbe952cd2860c01b611571565b8073ffffffffffffffffffffffffffffffffffffffff163373ffffffffffffffffffffffffffffffffffffffff161480156106ab57506106aa67f08987176d9a0eb860c01b611574565b5b806107585750600560008273ffffffffffffffffffffffffffffffffffffffff1673ffffffffffffffffffffffffffffffffffffffff16815260200190815260200160002060003373ffffffffffffffffffffffffffffffffffffffff1673ffffffffffffffffffffffffffffffffffffffff16815260200190815260200160002060009054906101000a900460ff16801561075757506107566782efe44665d8cda060c01b611574565b5b5b610797576040517f08c379a000000000000000000000000000000000000000000000000000000000815260040161078e90611d5c565b60405180910390fd5b6107ab6798e0f5a1462cc6b360c01b611571565b6107bf6795c5ad01c3e60a2860c01b611571565b826004600084815260200190815260200160002060006101000a81548173ffffffffffffffffffffffffffffffffffffffff021916908373ffffffffffffffffffffffffffffffffffffffff160217905550610825679dc42076de79e15060c01b611571565b61083967540bde4360892d5d60c01b611571565b818373ffffffffffffffffffffffffffffffffffffffff168273ffffffffffffffffffffffffffffffffffffffff167f8c5be1e5ebec7d5bd14f71427d1e84f3dd0314c0f7b2291e5b200ac8c7c3b92560405160405180910390a4505050565b6108ad67b38ac976fdb2460760c01b611571565b6108c1673a0bf6aa66de360160c01b611571565b6108d567e4b404c3317df6da60c01b611571565b6108e96729b41a232d6c604760c01b611571565b6002600082815260200190815260200160002060009054906101000a900473ffffffffffffffffffffffffffffffffffffffff1673ffffffffffffffffffffffffffffffffffffffff168373ffffffffffffffffffffffffffffffffffffffff161461098a576040517f08c379a000000000000000000000000000000000000000000000000000000000815260040161098190611dc8565b60405180910390fd5b61099e67c063bc1f1390704060c01b611571565b6109b2673537269872c65ad360c01b611571565b6109c66720e08a04e2ef4d4960c01b611571565b6109da6765b1fe06546e6b0960c01b611571565b600073ffffffffffffffffffffffffffffffffffffffff168273ffffffffffffffffffffffffffffffffffffffff1603610a49576040517f08c379a0000000000000000000000000000000000000000000000000000000008152600401610a4090611e34565b60405180910390fd5b610a5d67dca715eb7733ee4f60c01b611571565b610a7167243c44e5b5b33a8b60c01b611571565b610a85676fc51f7b374e0c0460c01b611571565b610a9967ac9827ed147ab0eb60c01b611571565b610aa483338361157f565b610ae3576040517f08c379a0000000000000000000000000000000000000000000000000000000008152600401610ada90611d5c565b60405180910390fd5b610af767662feaa40d53141f60c01b611571565b610b0b670889034c297a378d60c01b611571565b600360008473ffffffffffffffffffffffffffffffffffffffff1673ffffffffffffffffffffffffffffffffffffffff1681526020019081526020016000206000815480929190610b5b90611e83565b9190505550610b7467ca1ba016df639a3760c01b611571565b600360008373ffffffffffffffffffffffffffffffffffffffff1673ffffffffffffffffffffffffffffffffffffffff1681526020019081526020016000206000815480929190610bc490611eac565b9190505550610bdd674163059f97562efb60c01b611571565b816002600083815260200190815260200160002060006101000a81548173ffffffffffffffffffffffffffffffffffffffff021916908373ffffffffffffffffffffffffffffffffffffffff160217905550610c43678b65fbdba55bba9660c01b611571565b6004600082815260200190815260200160002060006101000a81549073ffffffffffffffffffffffffffffffffffffffff0219169055610c8d67962aee8c91f43b9960c01b611571565b610ca1675214b52e46c95a9460c01b611571565b808273ffffffffffffffffffffffffffffffffffffffff168473ffffffffffffffffffffffffffffffffffffffff167fddf252ad1be2c89b69c2b068fc378daa952ba7f163c4a11628f55a4df523b3ef60405160405180910390a4505050565b610d1567c5c7cf1f4dfa605760c01b611571565b610d29670cd80b9af50938b560c01b611571565b610d3d67dc00ebd92fdc039f60c01b611571565b610d48838383610899565b610d5c6772456d349014798960c01b611571565b610d70670399fbeebb26ef9f60c01b611571565b610d84675e1029f9f102e28e60c01b611571565b60008273ffffffffffffffffffffffffffffffffffffffff163b148015610dbb5750610dba67b8af6c205270eb0760c01b611574565b5b80610ea5575063150b7a0260e01b7bffffffffffffffffffffffffffffffffffffffffffffffffffffffff19168273ffffffffffffffffffffffffffffffffffffffff1663150b7a023386856040518463ffffffff1660e01b8152600401610e2593929190611f2b565b6020604051808303816000875af1158015610e44573d6000803e3d6000fd5b505050506040513d601f19601f82011682018060405250810190610e689190611f8a565b7bffffffffffffffffffffffffffffffffffffffffffffffffffffffff1916148015610ea45750610ea36781d3130f6427b2bf60c01b611574565b5b5b610ee4576040517f08c379a0000000000000000000000000000000000000000000000000000000008152600401610edb90612003565b60405180910390fd5b610ef867f1c4120a914f9f1360c01b611571565b505050565b6000610f1367eb39d9ec09f8194060c01b611571565b610f2767ab6f6051a5bac84660c01b611571565b6002600083815260200190815260200160002060009054906101000a900473ffffffffffffffffffffffffffffffffffffffff169050610f71674977a6edb5249e6b60c01b611571565b610f8567e8c942ca6e5019f160c01b611571565b610f9967d8fc023850153e0c60c01b611571565b600073ffffffffffffffffffffffffffffffffffffffff168173ffffffffffffffffffffffffffffffffffffffff1603611008576040517f08c379a0000000000000000000000000000000000000000000000000000000008152600401610fff90611cf0565b60405180910390fd5b61101c67a5d57ca1516610a260c01b611571565b919050565b60006110376727707d9bddf648b060c01b611571565b61104b674d0435900d6459da60c01b611571565b61105f67096443d1d9a0158660c01b611571565b611073673a25b660378888c760c01b611571565b600073ffffffffffffffffffffffffffffffffffffffff168273ffffffffffffffffffffffffffffffffffffffff16036110e2576040517f08c379a00000000000000000000000000000000000000000000000000000000081526004016110d99061206f565b60405180910390fd5b6110f667993ecea53787024260c01b611571565b61110a67e5b61c45e1fbe94c60c01b611571565b61111e6745eb6ff2414389e860c01b611571565b600360008373ffffffffffffffffffffffffffffffffffffffff1673ffffffffffffffffffffffffffffffffffffffff168152602001908152602001600020549050919050565b6001805461117290611c73565b80601f016020809104026020016040519081016040528092919081815260200182805461119e90611c73565b80156111eb5780601f106111c0576101008083540402835291602001916111eb565b820191906000526020600020905b8154815290600101906020018083116111ce57829003601f168201915b505050505081565b61120767ae5095c1e1921bf960c01b611571565b61121b67ea04ea2c2dd8253260c01b611571565b80600560003373ffffffffffffffffffffffffffffffffffffffff1673ffffffffffffffffffffffffffffffffffffffff16815260200190815260200160002060008473ffffffffffffffffffffffffffffffffffffffff1673ffffffffffffffffffffffffffffffffffffffff16815260200190815260200160002060006101000a81548160ff0219169083151502179055506112c36799d9b1821955dd6360c01b611571565b6112d7672ea4eeb1bc7c284060c01b611571565b8173ffffffffffffffffffffffffffffffffffffffff163373ffffffffffffffffffffffffffffffffffffffff167f17307eab39ab6107e8899845ad3d59bd9653f200f220920489ca2b5937696c31836040516113349190611809565b60405180910390a35050565b61135467c4f972f3e1deb82c60c01b611571565b611368671c3d01c57e27b90160c01b611571565b61137c670d045c665a3e434660c01b611571565b611387858585610899565b61139b678714f7d28d4d8c6c60c01b611571565b6113af67cc1f2dbbbd6736ee60c01b611571565b6113c367b98b10832de9960060c01b611571565b60008473ffffffffffffffffffffffffffffffffffffffff163b1480156113fa57506113f9677fc3141c789b692d60c01b611574565b5b806114e8575063150b7a0260e01b7bffffffffffffffffffffffffffffffffffffffffffffffffffffffff19168473ffffffffffffffffffffffffffffffffffffffff1663150b7a0233888787876040518663ffffffff1660e01b81526004016114689594939291906120cb565b6020604051808303816000875af1158015611487573d6000803e3d6000fd5b505050506040513d601f19601f820116820180604052508101906114ab9190611f8a565b7bffffffffffffffffffffffffffffffffffffffffffffffffffffffff19161480156114e757506114e667e11cb0e4bd0bf69c60c01b611574565b5b5b611527576040517f08c379a000000000000000000000000000000000000000000000000000000000815260040161151e90612003565b60405180910390fd5b61153b674fa7636c8a43156560c01b611571565b5050505050565b60056020528160005260406000206020528060005260406000206000915091509054906101000a900460ff1681565b50565b600060019050919050565b60006115956780d2ca321d69414160c01b611571565b6115a9675c5b278fb42f3eaf60c01b611571565b6115bd6783533c78cd80ed1960c01b611571565b8373ffffffffffffffffffffffffffffffffffffffff168373ffffffffffffffffffffffffffffffffffffffff1614801561160857506116076748a3417b76841dd760c01b611574565b5b806116d15750600560008573ffffffffffffffffffffffffffffffffffffffff1673ffffffffffffffffffffffffffffffffffffffff16815260200190815260200160002060008473ffffffffffffffffffffffffffffffffffffffff1673ffffffffffffffffffffffffffffffffffffffff16815260200190815260200160002060009054906101000a900460ff1680156116b457506116b367537fbad961c44f6460c01b611574565b5b80156116d057506116cf6710d8463b4ee794fb60c01b611574565b5b5b8061175657506004600083815260200190815260200160002060009054906101000a900473ffffffffffffffffffffffffffffffffffffffff1673ffffffffffffffffffffffffffffffffffffffff168373ffffffffffffffffffffffffffffffffffffffff16148015611755575061175467b01890a79146783b60c01b611574565b5b5b90509392505050565b600080fd5b600080fd5b60007fffffffff0000000000000000000000000000000000000000000000000000000082169050919050565b61179e81611769565b81146117a957600080fd5b50565b6000813590506117bb81611795565b92915050565b6000602082840312156117d7576117d661175f565b5b60006117e5848285016117ac565b91505092915050565b60008115159050919050565b611803816117ee565b82525050565b600060208201905061181e60008301846117fa565b92915050565b600081519050919050565b600082825260208201905092915050565b60005b8381101561185e578082015181840152602081019050611843565b60008484015250505050565b6000601f19601f8301169050919050565b600061188682611824565b611890818561182f565b93506118a0818560208601611840565b6118a98161186a565b840191505092915050565b600060208201905081810360008301526118ce818461187b565b905092915050565b6000819050919050565b6118e9816118d6565b81146118f457600080fd5b50565b600081359050611906816118e0565b92915050565b6000602082840312156119225761192161175f565b5b6000611930848285016118f7565b91505092915050565b600073ffffffffffffffffffffffffffffffffffffffff82169050919050565b600061196482611939565b9050919050565b61197481611959565b82525050565b600060208201905061198f600083018461196b565b92915050565b61199e81611959565b81146119a957600080fd5b50565b6000813590506119bb81611995565b92915050565b600080604083850312156119d8576119d761175f565b5b60006119e6858286016119ac565b92505060206119f7858286016118f7565b9150509250929050565b600080600060608486031215611a1a57611a1961175f565b5b6000611a28868287016119ac565b9350506020611a39868287016119ac565b9250506040611a4a868287016118f7565b9150509250925092565b600060208284031215611a6a57611a6961175f565b5b6000611a78848285016119ac565b91505092915050565b611a8a816118d6565b82525050565b6000602082019050611aa56000830184611a81565b92915050565b611ab4816117ee565b8114611abf57600080fd5b50565b600081359050611ad181611aab565b92915050565b60008060408385031215611aee57611aed61175f565b5b6000611afc858286016119ac565b9250506020611b0d85828601611ac2565b9150509250929050565b600080fd5b600080fd5b600080fd5b60008083601f840112611b3c57611b3b611b17565b5b8235905067ffffffffffffffff811115611b5957611b58611b1c565b5b602083019150836001820283011115611b7557611b74611b21565b5b9250929050565b600080600080600060808688031215611b9857611b9761175f565b5b6000611ba6888289016119ac565b9550506020611bb7888289016119ac565b9450506040611bc8888289016118f7565b935050606086013567ffffffffffffffff811115611be957611be8611764565b5b611bf588828901611b26565b92509250509295509295909350565b60008060408385031215611c1b57611c1a61175f565b5b6000611c29858286016119ac565b9250506020611c3a858286016119ac565b9150509250929050565b7f4e487b7100000000000000000000000000000000000000000000000000000000600052602260045260246000fd5b60006002820490506001821680611c8b57607f821691505b602082108103611c9e57611c9d611c44565b5b50919050565b7f746f6b656e20646f65736e277420657869737400000000000000000000000000600082015250565b6000611cda60138361182f565b9150611ce582611ca4565b602082019050919050565b60006020820190508181036000830152611d0981611ccd565b9050919050565b7f6e6f7420617574686f72697a6564000000000000000000000000000000000000600082015250565b6000611d46600e8361182f565b9150611d5182611d10565b602082019050919050565b60006020820190508181036000830152611d7581611d39565b9050919050565b7f66726f6d20213d206f776e657200000000000000000000000000000000000000600082015250565b6000611db2600d8361182f565b9150611dbd82611d7c565b602082019050919050565b60006020820190508181036000830152611de181611da5565b9050919050565b7f7472616e7366657220746f207a65726f20616464726573730000000000000000600082015250565b6000611e1e60188361182f565b9150611e2982611de8565b602082019050919050565b60006020820190508181036000830152611e4d81611e11565b9050919050565b7f4e487b7100000000000000000000000000000000000000000000000000000000600052601160045260246000fd5b6000611e8e826118d6565b915060008203611ea157611ea0611e54565b5b600182039050919050565b6000611eb7826118d6565b91507fffffffffffffffffffffffffffffffffffffffffffffffffffffffffffffffff8203611ee957611ee8611e54565b5b600182019050919050565b600082825260208201905092915050565b50565b6000611f15600083611ef4565b9150611f2082611f05565b600082019050919050565b6000608082019050611f40600083018661196b565b611f4d602083018561196b565b611f5a6040830184611a81565b8181036060830152611f6b81611f08565b9050949350505050565b600081519050611f8481611795565b92915050565b600060208284031215611fa057611f9f61175f565b5b6000611fae84828501611f75565b91505092915050565b7f756e7361666520726563697069656e7400000000000000000000000000000000600082015250565b6000611fed60108361182f565b9150611ff882611fb7565b602082019050919050565b6000602082019050818103600083015261201c81611fe0565b9050919050565b7f6f776e6572203d207a65726f2061646472657373000000000000000000000000600082015250565b600061205960148361182f565b915061206482612023565b602082019050919050565b600060208201905081810360008301526120888161204c565b9050919050565b82818337600083830152505050565b60006120aa8385611ef4565b93506120b783858461208f565b6120c08361186a565b840190509392505050565b60006080820190506120e0600083018861196b565b6120ed602083018761196b565b6120fa6040830186611a81565b818103606083015261210d81848661209e565b9050969550505050505056fea26469706673582212202962e3931865c1fa540184c704aa56c1dc8a9163e48b0702f648fc0ca06a1f1664736f6c63430008110033",
  "linkReferences": {},
  "deployedLinkReferences": {}
}